{
	"helloWorld.sol": {
		"HelloWorld": {
			"abi": [
				{
					"inputs": [],
					"name": "addr",
					"outputs": [
						{
							"internalType": "address",
							"name": "",
							"type": "address"
						}
					],
					"stateMutability": "view",
					"type": "function"
				},
				{
					"inputs": [],
					"name": "b",
					"outputs": [
						{
							"internalType": "bool",
							"name": "",
							"type": "bool"
						}
					],
					"stateMutability": "view",
					"type": "function"
				},
				{
					"inputs": [],
					"name": "defaultAddr",
					"outputs": [
						{
							"internalType": "address",
							"name": "",
							"type": "address"
						}
					],
					"stateMutability": "view",
					"type": "function"
				},
				{
					"inputs": [],
					"name": "defaultBoo",
					"outputs": [
						{
							"internalType": "bool",
							"name": "",
							"type": "bool"
						}
					],
					"stateMutability": "view",
					"type": "function"
				},
				{
					"inputs": [],
					"name": "defaultInt",
					"outputs": [
						{
							"internalType": "int256",
							"name": "",
							"type": "int256"
						}
					],
					"stateMutability": "view",
					"type": "function"
				},
				{
					"inputs": [],
					"name": "defaultUint",
					"outputs": [
						{
							"internalType": "uint256",
							"name": "",
							"type": "uint256"
						}
					],
					"stateMutability": "view",
					"type": "function"
				},
				{
					"inputs": [],
					"name": "foo",
					"outputs": [],
					"stateMutability": "nonpayable",
					"type": "function"
				},
				{
					"inputs": [],
					"name": "globalVariables",
					"outputs": [
						{
							"internalType": "address",
							"name": "",
							"type": "address"
						},
						{
							"internalType": "uint256",
							"name": "",
							"type": "uint256"
						},
						{
							"internalType": "uint256",
							"name": "",
							"type": "uint256"
						}
					],
					"stateMutability": "view",
					"type": "function"
				},
				{
					"inputs": [],
					"name": "i",
					"outputs": [
						{
							"internalType": "int256",
							"name": "",
							"type": "int256"
						}
					],
					"stateMutability": "view",
					"type": "function"
				},
				{
					"inputs": [],
					"name": "maxInt",
					"outputs": [
						{
							"internalType": "int256",
							"name": "",
							"type": "int256"
						}
					],
					"stateMutability": "view",
					"type": "function"
				},
				{
					"inputs": [],
					"name": "minInt",
					"outputs": [
						{
							"internalType": "int256",
							"name": "",
							"type": "int256"
						}
					],
					"stateMutability": "view",
					"type": "function"
				},
				{
					"inputs": [],
					"name": "myString",
					"outputs": [
						{
							"internalType": "string",
							"name": "",
							"type": "string"
						}
					],
					"stateMutability": "view",
					"type": "function"
				},
				{
					"inputs": [],
					"name": "u",
					"outputs": [
						{
							"internalType": "uint256",
							"name": "",
							"type": "uint256"
						}
					],
					"stateMutability": "view",
					"type": "function"
				}
			],
			"devdoc": {
				"kind": "dev",
				"methods": {},
				"version": 1
			},
			"evm": {
				"assembly": "    /* \"helloWorld.sol\":56:1142  contract HelloWorld{... */\n  mstore(0x40, 0x80)\n    /* \"helloWorld.sol\":81:117  string public myString=\"hello world\" */\n  mload(0x40)\n  dup1\n  0x40\n  add\n  0x40\n  mstore\n  dup1\n  0x0b\n  dup2\n  mstore\n  0x20\n  add\n  0x68656c6c6f20776f726c64000000000000000000000000000000000000000000\n  dup2\n  mstore\n  pop\n  0x00\n  swap1\n  dup1\n  mload\n  swap1\n  0x20\n  add\n  swap1\n  tag_1\n  swap3\n  swap2\n  swap1\n  tag_2\n  jump\t// in\ntag_1:\n  pop\n    /* \"helloWorld.sol\":137:141  true */\n  0x01\n    /* \"helloWorld.sol\":123:141  bool public b=true */\n  dup1\n  exp(0x0100, 0x00)\n  dup2\n  sload\n  dup2\n  0xff\n  mul\n  not\n  and\n  swap1\n  dup4\n  iszero\n  iszero\n  mul\n  or\n  swap1\n  sstore\n  pop\n    /* \"helloWorld.sol\":161:164  123 */\n  0x7b\n    /* \"helloWorld.sol\":147:164  uint public u=123 */\n  0x02\n  sstore\n    /* \"helloWorld.sol\":325:329  -123 */\n  0xffffffffffffffffffffffffffffffffffffffffffffffffffffffffffffff85\n    /* \"helloWorld.sol\":312:329  int public i=-123 */\n  0x03\n  sstore\n    /* \"helloWorld.sol\":452:465  type(int).min */\n  0x8000000000000000000000000000000000000000000000000000000000000000\n    /* \"helloWorld.sol\":434:465  int public minInt=type(int).min */\n  0x04\n  sstore\n    /* \"helloWorld.sol\":489:502  type(int).max */\n  0x7fffffffffffffffffffffffffffffffffffffffffffffffffffffffffffffff\n    /* \"helloWorld.sol\":471:502  int public maxInt=type(int).max */\n  0x05\n  sstore\n    /* \"helloWorld.sol\":530:572  0xCA35b7d915458EF540aDe6068dFe2F44E8fa733c */\n  0xca35b7d915458ef540ade6068dfe2f44e8fa733c\n    /* \"helloWorld.sol\":508:572  address public addr = 0xCA35b7d915458EF540aDe6068dFe2F44E8fa733c */\n  0x06\n  exp(0x0100, 0x00)\n  dup2\n  sload\n  dup2\n  0xffffffffffffffffffffffffffffffffffffffff\n  mul\n  not\n  and\n  swap1\n  dup4\n  0xffffffffffffffffffffffffffffffffffffffff\n  and\n  mul\n  or\n  swap1\n  sstore\n  pop\n    /* \"helloWorld.sol\":589:593  0xb5 */\n  0xb5\n    /* \"helloWorld.sol\":578:593  bytes1 a = 0xb5 */\n  0xf8\n  shl\n  0x06\n  exp(0x0100, 0x14)\n  dup2\n  sload\n  dup2\n  0xff\n  mul\n  not\n  and\n  swap1\n  dup4\n  0xf8\n  shr\n  mul\n  or\n  swap1\n  sstore\n  pop\n    /* \"helloWorld.sol\":56:1142  contract HelloWorld{... */\n  callvalue\n  dup1\n  iszero\n  tag_3\n  jumpi\n  0x00\n  dup1\n  revert\ntag_3:\n  pop\n  jump(tag_4)\ntag_2:\n  dup3\n  dup1\n  sload\n  tag_5\n  swap1\n  tag_6\n  jump\t// in\ntag_5:\n  swap1\n  0x00\n  mstore\n  keccak256(0x00, 0x20)\n  swap1\n  0x1f\n  add\n  0x20\n  swap1\n  div\n  dup2\n  add\n  swap3\n  dup3\n  tag_8\n  jumpi\n  0x00\n  dup6\n  sstore\n  jump(tag_7)\ntag_8:\n  dup3\n  0x1f\n  lt\n  tag_9\n  jumpi\n  dup1\n  mload\n  not(0xff)\n  and\n  dup4\n  dup1\n  add\n  or\n  dup6\n  sstore\n  jump(tag_7)\ntag_9:\n  dup3\n  dup1\n  add\n  0x01\n  add\n  dup6\n  sstore\n  dup3\n  iszero\n  tag_7\n  jumpi\n  swap2\n  dup3\n  add\ntag_10:\n  dup3\n  dup2\n  gt\n  iszero\n  tag_11\n  jumpi\n  dup3\n  mload\n  dup3\n  sstore\n  swap2\n  0x20\n  add\n  swap2\n  swap1\n  0x01\n  add\n  swap1\n  jump(tag_10)\ntag_11:\ntag_7:\n  pop\n  swap1\n  pop\n  tag_12\n  swap2\n  swap1\n  tag_13\n  jump\t// in\ntag_12:\n  pop\n  swap1\n  jump\t// out\ntag_13:\ntag_14:\n  dup1\n  dup3\n  gt\n  iszero\n  tag_15\n  jumpi\n  0x00\n  dup2\n  0x00\n  swap1\n  sstore\n  pop\n  0x01\n  add\n  jump(tag_14)\ntag_15:\n  pop\n  swap1\n  jump\t// out\n    /* \"#utility.yul\":7:327   */\ntag_6:\n    /* \"#utility.yul\":51:57   */\n  0x00\n    /* \"#utility.yul\":88:89   */\n  0x02\n    /* \"#utility.yul\":82:86   */\n  dup3\n    /* \"#utility.yul\":78:90   */\n  div\n    /* \"#utility.yul\":68:90   */\n  swap1\n  pop\n    /* \"#utility.yul\":135:136   */\n  0x01\n    /* \"#utility.yul\":129:133   */\n  dup3\n    /* \"#utility.yul\":125:137   */\n  and\n    /* \"#utility.yul\":156:174   */\n  dup1\n    /* \"#utility.yul\":146:227   */\n  tag_18\n  jumpi\n    /* \"#utility.yul\":212:216   */\n  0x7f\n    /* \"#utility.yul\":204:210   */\n  dup3\n    /* \"#utility.yul\":200:217   */\n  and\n    /* \"#utility.yul\":190:217   */\n  swap2\n  pop\n    /* \"#utility.yul\":146:227   */\ntag_18:\n    /* \"#utility.yul\":274:276   */\n  0x20\n    /* \"#utility.yul\":266:272   */\n  dup3\n    /* \"#utility.yul\":263:277   */\n  lt\n    /* \"#utility.yul\":243:261   */\n  dup2\n    /* \"#utility.yul\":240:278   */\n  eq\n    /* \"#utility.yul\":237:321   */\n  iszero\n  tag_19\n  jumpi\n    /* \"#utility.yul\":293:311   */\n  tag_20\n  tag_21\n  jump\t// in\ntag_20:\n    /* \"#utility.yul\":237:321   */\ntag_19:\n    /* \"#utility.yul\":58:327   */\n  pop\n    /* \"#utility.yul\":7:327   */\n  swap2\n  swap1\n  pop\n  jump\t// out\n    /* \"#utility.yul\":333:513   */\ntag_21:\n    /* \"#utility.yul\":381:458   */\n  0x4e487b7100000000000000000000000000000000000000000000000000000000\n    /* \"#utility.yul\":378:379   */\n  0x00\n    /* \"#utility.yul\":371:459   */\n  mstore\n    /* \"#utility.yul\":478:482   */\n  0x22\n    /* \"#utility.yul\":475:476   */\n  0x04\n    /* \"#utility.yul\":468:483   */\n  mstore\n    /* \"#utility.yul\":502:506   */\n  0x24\n    /* \"#utility.yul\":499:500   */\n  0x00\n    /* \"#utility.yul\":492:507   */\n  revert\n    /* \"helloWorld.sol\":56:1142  contract HelloWorld{... */\ntag_4:\n  dataSize(sub_0)\n  dup1\n  dataOffset(sub_0)\n  0x00\n  codecopy\n  0x00\n  return\nstop\n\nsub_0: assembly {\n        /* \"helloWorld.sol\":56:1142  contract HelloWorld{... */\n      mstore(0x40, 0x80)\n      callvalue\n      dup1\n      iszero\n      tag_1\n      jumpi\n      0x00\n      dup1\n      revert\n    tag_1:\n      pop\n      jumpi(tag_2, lt(calldatasize, 0x04))\n      shr(0xe0, calldataload(0x00))\n      dup1\n      0x767800de\n      gt\n      tag_16\n      jumpi\n      dup1\n      0xc2985578\n      gt\n      tag_17\n      jumpi\n      dup1\n      0xc2985578\n      eq\n      tag_12\n      jumpi\n      dup1\n      0xc6a898c5\n      eq\n      tag_13\n      jumpi\n      dup1\n      0xe5aa3d58\n      eq\n      tag_14\n      jumpi\n      dup1\n      0xf2427d37\n      eq\n      tag_15\n      jumpi\n      jump(tag_2)\n    tag_17:\n      dup1\n      0x767800de\n      eq\n      tag_9\n      jumpi\n      dup1\n      0x7a4c2571\n      eq\n      tag_10\n      jumpi\n      dup1\n      0x7e4e14cc\n      eq\n      tag_11\n      jumpi\n      jump(tag_2)\n    tag_16:\n      dup1\n      0x074eef3f\n      eq\n      tag_3\n      jumpi\n      dup1\n      0x1570c2cb\n      eq\n      tag_4\n      jumpi\n      dup1\n      0x3a8b2153\n      eq\n      tag_5\n      jumpi\n      dup1\n      0x492bfa18\n      eq\n      tag_6\n      jumpi\n      dup1\n      0x4df7e3d0\n      eq\n      tag_7\n      jumpi\n      dup1\n      0x5abe622b\n      eq\n      tag_8\n      jumpi\n    tag_2:\n      0x00\n      dup1\n      revert\n        /* \"helloWorld.sol\":599:621  bool public defaultBoo */\n    tag_3:\n      tag_18\n      tag_19\n      jump\t// in\n    tag_18:\n      mload(0x40)\n      tag_20\n      swap2\n      swap1\n      tag_21\n      jump\t// in\n    tag_20:\n      mload(0x40)\n      dup1\n      swap2\n      sub\n      swap1\n      return\n        /* \"helloWorld.sol\":636:659  uint public defaultUint */\n    tag_4:\n      tag_22\n      tag_23\n      jump\t// in\n    tag_22:\n      mload(0x40)\n      tag_24\n      swap2\n      swap1\n      tag_25\n      jump\t// in\n    tag_24:\n      mload(0x40)\n      dup1\n      swap2\n      sub\n      swap1\n      return\n        /* \"helloWorld.sol\":853:1140  function globalVariables() external view returns (address,uint,uint){ //view functions can read local and state variables... */\n    tag_5:\n      tag_26\n      tag_27\n      jump\t// in\n    tag_26:\n      mload(0x40)\n      tag_28\n      swap4\n      swap3\n      swap2\n      swap1\n      tag_29\n      jump\t// in\n    tag_28:\n      mload(0x40)\n      dup1\n      swap2\n      sub\n      swap1\n      return\n        /* \"helloWorld.sol\":81:117  string public myString=\"hello world\" */\n    tag_6:\n      tag_30\n      tag_31\n      jump\t// in\n    tag_30:\n      mload(0x40)\n      tag_32\n      swap2\n      swap1\n      tag_33\n      jump\t// in\n    tag_32:\n      mload(0x40)\n      dup1\n      swap2\n      sub\n      swap1\n      return\n        /* \"helloWorld.sol\":123:141  bool public b=true */\n    tag_7:\n      tag_34\n      tag_35\n      jump\t// in\n    tag_34:\n      mload(0x40)\n      tag_36\n      swap2\n      swap1\n      tag_21\n      jump\t// in\n    tag_36:\n      mload(0x40)\n      dup1\n      swap2\n      sub\n      swap1\n      return\n        /* \"helloWorld.sol\":670:691  int public defaultInt */\n    tag_8:\n      tag_37\n      tag_38\n      jump\t// in\n    tag_37:\n      mload(0x40)\n      tag_39\n      swap2\n      swap1\n      tag_40\n      jump\t// in\n    tag_39:\n      mload(0x40)\n      dup1\n      swap2\n      sub\n      swap1\n      return\n        /* \"helloWorld.sol\":508:572  address public addr = 0xCA35b7d915458EF540aDe6068dFe2F44E8fa733c */\n    tag_9:\n      tag_41\n      tag_42\n      jump\t// in\n    tag_41:\n      mload(0x40)\n      tag_43\n      swap2\n      swap1\n      tag_44\n      jump\t// in\n    tag_43:\n      mload(0x40)\n      dup1\n      swap2\n      sub\n      swap1\n      return\n        /* \"helloWorld.sol\":471:502  int public maxInt=type(int).max */\n    tag_10:\n      tag_45\n      tag_46\n      jump\t// in\n    tag_45:\n      mload(0x40)\n      tag_47\n      swap2\n      swap1\n      tag_40\n      jump\t// in\n    tag_47:\n      mload(0x40)\n      dup1\n      swap2\n      sub\n      swap1\n      return\n        /* \"helloWorld.sol\":434:465  int public minInt=type(int).min */\n    tag_11:\n      tag_48\n      tag_49\n      jump\t// in\n    tag_48:\n      mload(0x40)\n      tag_50\n      swap2\n      swap1\n      tag_40\n      jump\t// in\n    tag_50:\n      mload(0x40)\n      dup1\n      swap2\n      sub\n      swap1\n      return\n        /* \"helloWorld.sol\":781:847  function foo() external {... */\n    tag_12:\n      tag_51\n      tag_52\n      jump\t// in\n    tag_51:\n      stop\n        /* \"helloWorld.sol\":147:164  uint public u=123 */\n    tag_13:\n      tag_53\n      tag_54\n      jump\t// in\n    tag_53:\n      mload(0x40)\n      tag_55\n      swap2\n      swap1\n      tag_25\n      jump\t// in\n    tag_55:\n      mload(0x40)\n      dup1\n      swap2\n      sub\n      swap1\n      return\n        /* \"helloWorld.sol\":312:329  int public i=-123 */\n    tag_14:\n      tag_56\n      tag_57\n      jump\t// in\n    tag_56:\n      mload(0x40)\n      tag_58\n      swap2\n      swap1\n      tag_40\n      jump\t// in\n    tag_58:\n      mload(0x40)\n      dup1\n      swap2\n      sub\n      swap1\n      return\n        /* \"helloWorld.sol\":702:728  address public defaultAddr */\n    tag_15:\n      tag_59\n      tag_60\n      jump\t// in\n    tag_59:\n      mload(0x40)\n      tag_61\n      swap2\n      swap1\n      tag_44\n      jump\t// in\n    tag_61:\n      mload(0x40)\n      dup1\n      swap2\n      sub\n      swap1\n      return\n        /* \"helloWorld.sol\":599:621  bool public defaultBoo */\n    tag_19:\n      0x06\n      0x15\n      swap1\n      sload\n      swap1\n      0x0100\n      exp\n      swap1\n      div\n      0xff\n      and\n      dup2\n      jump\t// out\n        /* \"helloWorld.sol\":636:659  uint public defaultUint */\n    tag_23:\n      sload(0x07)\n      dup2\n      jump\t// out\n        /* \"helloWorld.sol\":853:1140  function globalVariables() external view returns (address,uint,uint){ //view functions can read local and state variables... */\n    tag_27:\n        /* \"helloWorld.sol\":903:910  address */\n      0x00\n        /* \"helloWorld.sol\":911:915  uint */\n      dup1\n        /* \"helloWorld.sol\":916:920  uint */\n      0x00\n        /* \"helloWorld.sol\":983:997  address sender */\n      dup1\n        /* \"helloWorld.sol\":1000:1010  msg.sender */\n      caller\n        /* \"helloWorld.sol\":983:1010  address sender = msg.sender */\n      swap1\n      pop\n        /* \"helloWorld.sol\":1020:1034  uint timestamp */\n      0x00\n        /* \"helloWorld.sol\":1037:1052  block.timestamp */\n      timestamp\n        /* \"helloWorld.sol\":1020:1052  uint timestamp = block.timestamp */\n      swap1\n      pop\n        /* \"helloWorld.sol\":1062:1075  uint blockNum */\n      0x00\n        /* \"helloWorld.sol\":1078:1090  block.number */\n      number\n        /* \"helloWorld.sol\":1062:1090  uint blockNum = block.number */\n      swap1\n      pop\n        /* \"helloWorld.sol\":1107:1113  sender */\n      dup3\n        /* \"helloWorld.sol\":1114:1123  timestamp */\n      dup3\n        /* \"helloWorld.sol\":1124:1132  blockNum */\n      dup3\n        /* \"helloWorld.sol\":1100:1133  return(sender,timestamp,blockNum) */\n      swap6\n      pop\n      swap6\n      pop\n      swap6\n      pop\n      pop\n      pop\n      pop\n        /* \"helloWorld.sol\":853:1140  function globalVariables() external view returns (address,uint,uint){ //view functions can read local and state variables... */\n      swap1\n      swap2\n      swap3\n      jump\t// out\n        /* \"helloWorld.sol\":81:117  string public myString=\"hello world\" */\n    tag_31:\n      0x00\n      dup1\n      sload\n      tag_63\n      swap1\n      tag_64\n      jump\t// in\n    tag_63:\n      dup1\n      0x1f\n      add\n      0x20\n      dup1\n      swap2\n      div\n      mul\n      0x20\n      add\n      mload(0x40)\n      swap1\n      dup2\n      add\n      0x40\n      mstore\n      dup1\n      swap3\n      swap2\n      swap1\n      dup2\n      dup2\n      mstore\n      0x20\n      add\n      dup3\n      dup1\n      sload\n      tag_65\n      swap1\n      tag_64\n      jump\t// in\n    tag_65:\n      dup1\n      iszero\n      tag_66\n      jumpi\n      dup1\n      0x1f\n      lt\n      tag_67\n      jumpi\n      0x0100\n      dup1\n      dup4\n      sload\n      div\n      mul\n      dup4\n      mstore\n      swap2\n      0x20\n      add\n      swap2\n      jump(tag_66)\n    tag_67:\n      dup3\n      add\n      swap2\n      swap1\n      0x00\n      mstore\n      keccak256(0x00, 0x20)\n      swap1\n    tag_68:\n      dup2\n      sload\n      dup2\n      mstore\n      swap1\n      0x01\n      add\n      swap1\n      0x20\n      add\n      dup1\n      dup4\n      gt\n      tag_68\n      jumpi\n      dup3\n      swap1\n      sub\n      0x1f\n      and\n      dup3\n      add\n      swap2\n    tag_66:\n      pop\n      pop\n      pop\n      pop\n      pop\n      dup2\n      jump\t// out\n        /* \"helloWorld.sol\":123:141  bool public b=true */\n    tag_35:\n      0x01\n      0x00\n      swap1\n      sload\n      swap1\n      0x0100\n      exp\n      swap1\n      div\n      0xff\n      and\n      dup2\n      jump\t// out\n        /* \"helloWorld.sol\":670:691  int public defaultInt */\n    tag_38:\n      sload(0x08)\n      dup2\n      jump\t// out\n        /* \"helloWorld.sol\":508:572  address public addr = 0xCA35b7d915458EF540aDe6068dFe2F44E8fa733c */\n    tag_42:\n      0x06\n      0x00\n      swap1\n      sload\n      swap1\n      0x0100\n      exp\n      swap1\n      div\n      0xffffffffffffffffffffffffffffffffffffffff\n      and\n      dup2\n      jump\t// out\n        /* \"helloWorld.sol\":471:502  int public maxInt=type(int).max */\n    tag_46:\n      sload(0x05)\n      dup2\n      jump\t// out\n        /* \"helloWorld.sol\":434:465  int public minInt=type(int).min */\n    tag_49:\n      sload(0x04)\n      dup2\n      jump\t// out\n        /* \"helloWorld.sol\":781:847  function foo() external {... */\n    tag_52:\n        /* \"helloWorld.sol\":815:836  uint notStateVariable */\n      0x00\n        /* \"helloWorld.sol\":837:840  456 */\n      0x01c8\n        /* \"helloWorld.sol\":815:840  uint notStateVariable=456 */\n      swap1\n      pop\n        /* \"helloWorld.sol\":805:847  {... */\n      pop\n        /* \"helloWorld.sol\":781:847  function foo() external {... */\n      jump\t// out\n        /* \"helloWorld.sol\":147:164  uint public u=123 */\n    tag_54:\n      sload(0x02)\n      dup2\n      jump\t// out\n        /* \"helloWorld.sol\":312:329  int public i=-123 */\n    tag_57:\n      sload(0x03)\n      dup2\n      jump\t// out\n        /* \"helloWorld.sol\":702:728  address public defaultAddr */\n    tag_60:\n      0x09\n      0x00\n      swap1\n      sload\n      swap1\n      0x0100\n      exp\n      swap1\n      div\n      0xffffffffffffffffffffffffffffffffffffffff\n      and\n      dup2\n      jump\t// out\n        /* \"#utility.yul\":7:125   */\n    tag_71:\n        /* \"#utility.yul\":94:118   */\n      tag_73\n        /* \"#utility.yul\":112:117   */\n      dup2\n        /* \"#utility.yul\":94:118   */\n      tag_74\n      jump\t// in\n    tag_73:\n        /* \"#utility.yul\":89:92   */\n      dup3\n        /* \"#utility.yul\":82:119   */\n      mstore\n        /* \"#utility.yul\":7:125   */\n      pop\n      pop\n      jump\t// out\n        /* \"#utility.yul\":131:240   */\n    tag_75:\n        /* \"#utility.yul\":212:233   */\n      tag_77\n        /* \"#utility.yul\":227:232   */\n      dup2\n        /* \"#utility.yul\":212:233   */\n      tag_78\n      jump\t// in\n    tag_77:\n        /* \"#utility.yul\":207:210   */\n      dup3\n        /* \"#utility.yul\":200:234   */\n      mstore\n        /* \"#utility.yul\":131:240   */\n      pop\n      pop\n      jump\t// out\n        /* \"#utility.yul\":246:361   */\n    tag_79:\n        /* \"#utility.yul\":331:354   */\n      tag_81\n        /* \"#utility.yul\":348:353   */\n      dup2\n        /* \"#utility.yul\":331:354   */\n      tag_82\n      jump\t// in\n    tag_81:\n        /* \"#utility.yul\":326:329   */\n      dup3\n        /* \"#utility.yul\":319:355   */\n      mstore\n        /* \"#utility.yul\":246:361   */\n      pop\n      pop\n      jump\t// out\n        /* \"#utility.yul\":367:731   */\n    tag_83:\n        /* \"#utility.yul\":455:458   */\n      0x00\n        /* \"#utility.yul\":483:522   */\n      tag_85\n        /* \"#utility.yul\":516:521   */\n      dup3\n        /* \"#utility.yul\":483:522   */\n      tag_86\n      jump\t// in\n    tag_85:\n        /* \"#utility.yul\":538:609   */\n      tag_87\n        /* \"#utility.yul\":602:608   */\n      dup2\n        /* \"#utility.yul\":597:600   */\n      dup6\n        /* \"#utility.yul\":538:609   */\n      tag_88\n      jump\t// in\n    tag_87:\n        /* \"#utility.yul\":531:609   */\n      swap4\n      pop\n        /* \"#utility.yul\":618:670   */\n      tag_89\n        /* \"#utility.yul\":663:669   */\n      dup2\n        /* \"#utility.yul\":658:661   */\n      dup6\n        /* \"#utility.yul\":651:655   */\n      0x20\n        /* \"#utility.yul\":644:649   */\n      dup7\n        /* \"#utility.yul\":640:656   */\n      add\n        /* \"#utility.yul\":618:670   */\n      tag_90\n      jump\t// in\n    tag_89:\n        /* \"#utility.yul\":695:724   */\n      tag_91\n        /* \"#utility.yul\":717:723   */\n      dup2\n        /* \"#utility.yul\":695:724   */\n      tag_92\n      jump\t// in\n    tag_91:\n        /* \"#utility.yul\":690:693   */\n      dup5\n        /* \"#utility.yul\":686:725   */\n      add\n        /* \"#utility.yul\":679:725   */\n      swap2\n      pop\n        /* \"#utility.yul\":459:731   */\n      pop\n        /* \"#utility.yul\":367:731   */\n      swap3\n      swap2\n      pop\n      pop\n      jump\t// out\n        /* \"#utility.yul\":737:855   */\n    tag_93:\n        /* \"#utility.yul\":824:848   */\n      tag_95\n        /* \"#utility.yul\":842:847   */\n      dup2\n        /* \"#utility.yul\":824:848   */\n      tag_96\n      jump\t// in\n    tag_95:\n        /* \"#utility.yul\":819:822   */\n      dup3\n        /* \"#utility.yul\":812:849   */\n      mstore\n        /* \"#utility.yul\":737:855   */\n      pop\n      pop\n      jump\t// out\n        /* \"#utility.yul\":861:1083   */\n    tag_44:\n        /* \"#utility.yul\":954:958   */\n      0x00\n        /* \"#utility.yul\":992:994   */\n      0x20\n        /* \"#utility.yul\":981:990   */\n      dup3\n        /* \"#utility.yul\":977:995   */\n      add\n        /* \"#utility.yul\":969:995   */\n      swap1\n      pop\n        /* \"#utility.yul\":1005:1076   */\n      tag_98\n        /* \"#utility.yul\":1073:1074   */\n      0x00\n        /* \"#utility.yul\":1062:1071   */\n      dup4\n        /* \"#utility.yul\":1058:1075   */\n      add\n        /* \"#utility.yul\":1049:1055   */\n      dup5\n        /* \"#utility.yul\":1005:1076   */\n      tag_71\n      jump\t// in\n    tag_98:\n        /* \"#utility.yul\":861:1083   */\n      swap3\n      swap2\n      pop\n      pop\n      jump\t// out\n        /* \"#utility.yul\":1089:1531   */\n    tag_29:\n        /* \"#utility.yul\":1238:1242   */\n      0x00\n        /* \"#utility.yul\":1276:1278   */\n      0x60\n        /* \"#utility.yul\":1265:1274   */\n      dup3\n        /* \"#utility.yul\":1261:1279   */\n      add\n        /* \"#utility.yul\":1253:1279   */\n      swap1\n      pop\n        /* \"#utility.yul\":1289:1360   */\n      tag_100\n        /* \"#utility.yul\":1357:1358   */\n      0x00\n        /* \"#utility.yul\":1346:1355   */\n      dup4\n        /* \"#utility.yul\":1342:1359   */\n      add\n        /* \"#utility.yul\":1333:1339   */\n      dup7\n        /* \"#utility.yul\":1289:1360   */\n      tag_71\n      jump\t// in\n    tag_100:\n        /* \"#utility.yul\":1370:1442   */\n      tag_101\n        /* \"#utility.yul\":1438:1440   */\n      0x20\n        /* \"#utility.yul\":1427:1436   */\n      dup4\n        /* \"#utility.yul\":1423:1441   */\n      add\n        /* \"#utility.yul\":1414:1420   */\n      dup6\n        /* \"#utility.yul\":1370:1442   */\n      tag_93\n      jump\t// in\n    tag_101:\n        /* \"#utility.yul\":1452:1524   */\n      tag_102\n        /* \"#utility.yul\":1520:1522   */\n      0x40\n        /* \"#utility.yul\":1509:1518   */\n      dup4\n        /* \"#utility.yul\":1505:1523   */\n      add\n        /* \"#utility.yul\":1496:1502   */\n      dup5\n        /* \"#utility.yul\":1452:1524   */\n      tag_93\n      jump\t// in\n    tag_102:\n        /* \"#utility.yul\":1089:1531   */\n      swap5\n      swap4\n      pop\n      pop\n      pop\n      pop\n      jump\t// out\n        /* \"#utility.yul\":1537:1747   */\n    tag_21:\n        /* \"#utility.yul\":1624:1628   */\n      0x00\n        /* \"#utility.yul\":1662:1664   */\n      0x20\n        /* \"#utility.yul\":1651:1660   */\n      dup3\n        /* \"#utility.yul\":1647:1665   */\n      add\n        /* \"#utility.yul\":1639:1665   */\n      swap1\n      pop\n        /* \"#utility.yul\":1675:1740   */\n      tag_104\n        /* \"#utility.yul\":1737:1738   */\n      0x00\n        /* \"#utility.yul\":1726:1735   */\n      dup4\n        /* \"#utility.yul\":1722:1739   */\n      add\n        /* \"#utility.yul\":1713:1719   */\n      dup5\n        /* \"#utility.yul\":1675:1740   */\n      tag_75\n      jump\t// in\n    tag_104:\n        /* \"#utility.yul\":1537:1747   */\n      swap3\n      swap2\n      pop\n      pop\n      jump\t// out\n        /* \"#utility.yul\":1753:1971   */\n    tag_40:\n        /* \"#utility.yul\":1844:1848   */\n      0x00\n        /* \"#utility.yul\":1882:1884   */\n      0x20\n        /* \"#utility.yul\":1871:1880   */\n      dup3\n        /* \"#utility.yul\":1867:1885   */\n      add\n        /* \"#utility.yul\":1859:1885   */\n      swap1\n      pop\n        /* \"#utility.yul\":1895:1964   */\n      tag_106\n        /* \"#utility.yul\":1961:1962   */\n      0x00\n        /* \"#utility.yul\":1950:1959   */\n      dup4\n        /* \"#utility.yul\":1946:1963   */\n      add\n        /* \"#utility.yul\":1937:1943   */\n      dup5\n        /* \"#utility.yul\":1895:1964   */\n      tag_79\n      jump\t// in\n    tag_106:\n        /* \"#utility.yul\":1753:1971   */\n      swap3\n      swap2\n      pop\n      pop\n      jump\t// out\n        /* \"#utility.yul\":1977:2290   */\n    tag_33:\n        /* \"#utility.yul\":2090:2094   */\n      0x00\n        /* \"#utility.yul\":2128:2130   */\n      0x20\n        /* \"#utility.yul\":2117:2126   */\n      dup3\n        /* \"#utility.yul\":2113:2131   */\n      add\n        /* \"#utility.yul\":2105:2131   */\n      swap1\n      pop\n        /* \"#utility.yul\":2177:2186   */\n      dup2\n        /* \"#utility.yul\":2171:2175   */\n      dup2\n        /* \"#utility.yul\":2167:2187   */\n      sub\n        /* \"#utility.yul\":2163:2164   */\n      0x00\n        /* \"#utility.yul\":2152:2161   */\n      dup4\n        /* \"#utility.yul\":2148:2165   */\n      add\n        /* \"#utility.yul\":2141:2188   */\n      mstore\n        /* \"#utility.yul\":2205:2283   */\n      tag_108\n        /* \"#utility.yul\":2278:2282   */\n      dup2\n        /* \"#utility.yul\":2269:2275   */\n      dup5\n        /* \"#utility.yul\":2205:2283   */\n      tag_83\n      jump\t// in\n    tag_108:\n        /* \"#utility.yul\":2197:2283   */\n      swap1\n      pop\n        /* \"#utility.yul\":1977:2290   */\n      swap3\n      swap2\n      pop\n      pop\n      jump\t// out\n        /* \"#utility.yul\":2296:2518   */\n    tag_25:\n        /* \"#utility.yul\":2389:2393   */\n      0x00\n        /* \"#utility.yul\":2427:2429   */\n      0x20\n        /* \"#utility.yul\":2416:2425   */\n      dup3\n        /* \"#utility.yul\":2412:2430   */\n      add\n        /* \"#utility.yul\":2404:2430   */\n      swap1\n      pop\n        /* \"#utility.yul\":2440:2511   */\n      tag_110\n        /* \"#utility.yul\":2508:2509   */\n      0x00\n        /* \"#utility.yul\":2497:2506   */\n      dup4\n        /* \"#utility.yul\":2493:2510   */\n      add\n        /* \"#utility.yul\":2484:2490   */\n      dup5\n        /* \"#utility.yul\":2440:2511   */\n      tag_93\n      jump\t// in\n    tag_110:\n        /* \"#utility.yul\":2296:2518   */\n      swap3\n      swap2\n      pop\n      pop\n      jump\t// out\n        /* \"#utility.yul\":2524:2623   */\n    tag_86:\n        /* \"#utility.yul\":2576:2582   */\n      0x00\n        /* \"#utility.yul\":2610:2615   */\n      dup2\n        /* \"#utility.yul\":2604:2616   */\n      mload\n        /* \"#utility.yul\":2594:2616   */\n      swap1\n      pop\n        /* \"#utility.yul\":2524:2623   */\n      swap2\n      swap1\n      pop\n      jump\t// out\n        /* \"#utility.yul\":2629:2798   */\n    tag_88:\n        /* \"#utility.yul\":2713:2724   */\n      0x00\n        /* \"#utility.yul\":2747:2753   */\n      dup3\n        /* \"#utility.yul\":2742:2745   */\n      dup3\n        /* \"#utility.yul\":2735:2754   */\n      mstore\n        /* \"#utility.yul\":2787:2791   */\n      0x20\n        /* \"#utility.yul\":2782:2785   */\n      dup3\n        /* \"#utility.yul\":2778:2792   */\n      add\n        /* \"#utility.yul\":2763:2792   */\n      swap1\n      pop\n        /* \"#utility.yul\":2629:2798   */\n      swap3\n      swap2\n      pop\n      pop\n      jump\t// out\n        /* \"#utility.yul\":2804:2900   */\n    tag_74:\n        /* \"#utility.yul\":2841:2848   */\n      0x00\n        /* \"#utility.yul\":2870:2894   */\n      tag_114\n        /* \"#utility.yul\":2888:2893   */\n      dup3\n        /* \"#utility.yul\":2870:2894   */\n      tag_115\n      jump\t// in\n    tag_114:\n        /* \"#utility.yul\":2859:2894   */\n      swap1\n      pop\n        /* \"#utility.yul\":2804:2900   */\n      swap2\n      swap1\n      pop\n      jump\t// out\n        /* \"#utility.yul\":2906:2996   */\n    tag_78:\n        /* \"#utility.yul\":2940:2947   */\n      0x00\n        /* \"#utility.yul\":2983:2988   */\n      dup2\n        /* \"#utility.yul\":2976:2989   */\n      iszero\n        /* \"#utility.yul\":2969:2990   */\n      iszero\n        /* \"#utility.yul\":2958:2990   */\n      swap1\n      pop\n        /* \"#utility.yul\":2906:2996   */\n      swap2\n      swap1\n      pop\n      jump\t// out\n        /* \"#utility.yul\":3002:3078   */\n    tag_82:\n        /* \"#utility.yul\":3038:3045   */\n      0x00\n        /* \"#utility.yul\":3067:3072   */\n      dup2\n        /* \"#utility.yul\":3056:3072   */\n      swap1\n      pop\n        /* \"#utility.yul\":3002:3078   */\n      swap2\n      swap1\n      pop\n      jump\t// out\n        /* \"#utility.yul\":3084:3210   */\n    tag_115:\n        /* \"#utility.yul\":3121:3128   */\n      0x00\n        /* \"#utility.yul\":3161:3203   */\n      0xffffffffffffffffffffffffffffffffffffffff\n        /* \"#utility.yul\":3154:3159   */\n      dup3\n        /* \"#utility.yul\":3150:3204   */\n      and\n        /* \"#utility.yul\":3139:3204   */\n      swap1\n      pop\n        /* \"#utility.yul\":3084:3210   */\n      swap2\n      swap1\n      pop\n      jump\t// out\n        /* \"#utility.yul\":3216:3293   */\n    tag_96:\n        /* \"#utility.yul\":3253:3260   */\n      0x00\n        /* \"#utility.yul\":3282:3287   */\n      dup2\n        /* \"#utility.yul\":3271:3287   */\n      swap1\n      pop\n        /* \"#utility.yul\":3216:3293   */\n      swap2\n      swap1\n      pop\n      jump\t// out\n        /* \"#utility.yul\":3299:3606   */\n    tag_90:\n        /* \"#utility.yul\":3367:3368   */\n      0x00\n        /* \"#utility.yul\":3377:3490   */\n    tag_121:\n        /* \"#utility.yul\":3391:3397   */\n      dup4\n        /* \"#utility.yul\":3388:3389   */\n      dup2\n        /* \"#utility.yul\":3385:3398   */\n      lt\n        /* \"#utility.yul\":3377:3490   */\n      iszero\n      tag_123\n      jumpi\n        /* \"#utility.yul\":3476:3477   */\n      dup1\n        /* \"#utility.yul\":3471:3474   */\n      dup3\n        /* \"#utility.yul\":3467:3478   */\n      add\n        /* \"#utility.yul\":3461:3479   */\n      mload\n        /* \"#utility.yul\":3457:3458   */\n      dup2\n        /* \"#utility.yul\":3452:3455   */\n      dup5\n        /* \"#utility.yul\":3448:3459   */\n      add\n        /* \"#utility.yul\":3441:3480   */\n      mstore\n        /* \"#utility.yul\":3413:3415   */\n      0x20\n        /* \"#utility.yul\":3410:3411   */\n      dup2\n        /* \"#utility.yul\":3406:3416   */\n      add\n        /* \"#utility.yul\":3401:3416   */\n      swap1\n      pop\n        /* \"#utility.yul\":3377:3490   */\n      jump(tag_121)\n    tag_123:\n        /* \"#utility.yul\":3508:3514   */\n      dup4\n        /* \"#utility.yul\":3505:3506   */\n      dup2\n        /* \"#utility.yul\":3502:3515   */\n      gt\n        /* \"#utility.yul\":3499:3600   */\n      iszero\n      tag_124\n      jumpi\n        /* \"#utility.yul\":3588:3589   */\n      0x00\n        /* \"#utility.yul\":3579:3585   */\n      dup5\n        /* \"#utility.yul\":3574:3577   */\n      dup5\n        /* \"#utility.yul\":3570:3586   */\n      add\n        /* \"#utility.yul\":3563:3590   */\n      mstore\n        /* \"#utility.yul\":3499:3600   */\n    tag_124:\n        /* \"#utility.yul\":3348:3606   */\n      pop\n        /* \"#utility.yul\":3299:3606   */\n      pop\n      pop\n      pop\n      jump\t// out\n        /* \"#utility.yul\":3612:3932   */\n    tag_64:\n        /* \"#utility.yul\":3656:3662   */\n      0x00\n        /* \"#utility.yul\":3693:3694   */\n      0x02\n        /* \"#utility.yul\":3687:3691   */\n      dup3\n        /* \"#utility.yul\":3683:3695   */\n      div\n        /* \"#utility.yul\":3673:3695   */\n      swap1\n      pop\n        /* \"#utility.yul\":3740:3741   */\n      0x01\n        /* \"#utility.yul\":3734:3738   */\n      dup3\n        /* \"#utility.yul\":3730:3742   */\n      and\n        /* \"#utility.yul\":3761:3779   */\n      dup1\n        /* \"#utility.yul\":3751:3832   */\n      tag_126\n      jumpi\n        /* \"#utility.yul\":3817:3821   */\n      0x7f\n        /* \"#utility.yul\":3809:3815   */\n      dup3\n        /* \"#utility.yul\":3805:3822   */\n      and\n        /* \"#utility.yul\":3795:3822   */\n      swap2\n      pop\n        /* \"#utility.yul\":3751:3832   */\n    tag_126:\n        /* \"#utility.yul\":3879:3881   */\n      0x20\n        /* \"#utility.yul\":3871:3877   */\n      dup3\n        /* \"#utility.yul\":3868:3882   */\n      lt\n        /* \"#utility.yul\":3848:3866   */\n      dup2\n        /* \"#utility.yul\":3845:3883   */\n      eq\n        /* \"#utility.yul\":3842:3926   */\n      iszero\n      tag_127\n      jumpi\n        /* \"#utility.yul\":3898:3916   */\n      tag_128\n      tag_129\n      jump\t// in\n    tag_128:\n        /* \"#utility.yul\":3842:3926   */\n    tag_127:\n        /* \"#utility.yul\":3663:3932   */\n      pop\n        /* \"#utility.yul\":3612:3932   */\n      swap2\n      swap1\n      pop\n      jump\t// out\n        /* \"#utility.yul\":3938:4118   */\n    tag_129:\n        /* \"#utility.yul\":3986:4063   */\n      0x4e487b7100000000000000000000000000000000000000000000000000000000\n        /* \"#utility.yul\":3983:3984   */\n      0x00\n        /* \"#utility.yul\":3976:4064   */\n      mstore\n        /* \"#utility.yul\":4083:4087   */\n      0x22\n        /* \"#utility.yul\":4080:4081   */\n      0x04\n        /* \"#utility.yul\":4073:4088   */\n      mstore\n        /* \"#utility.yul\":4107:4111   */\n      0x24\n        /* \"#utility.yul\":4104:4105   */\n      0x00\n        /* \"#utility.yul\":4097:4112   */\n      revert\n        /* \"#utility.yul\":4124:4226   */\n    tag_92:\n        /* \"#utility.yul\":4165:4171   */\n      0x00\n        /* \"#utility.yul\":4216:4218   */\n      0x1f\n        /* \"#utility.yul\":4212:4219   */\n      not\n        /* \"#utility.yul\":4207:4209   */\n      0x1f\n        /* \"#utility.yul\":4200:4205   */\n      dup4\n        /* \"#utility.yul\":4196:4210   */\n      add\n        /* \"#utility.yul\":4192:4220   */\n      and\n        /* \"#utility.yul\":4182:4220   */\n      swap1\n      pop\n        /* \"#utility.yul\":4124:4226   */\n      swap2\n      swap1\n      pop\n      jump\t// out\n\n    auxdata: 0xa2646970667358221220e4219d56b6ebf1f6357d81135e40733fdc9210e7a039a7802f42076b09d43c2664736f6c63430008070033\n}\n",
				"bytecode": {
					"linkReferences": {},
					"object": "60806040526040518060400160405280600b81526020017f68656c6c6f20776f726c640000000000000000000000000000000000000000008152506000908051906020019061004f929190610161565b5060018060006101000a81548160ff021916908315150217905550607b6002557fffffffffffffffffffffffffffffffffffffffffffffffffffffffffffffff856003557f80000000000000000000000000000000000000000000000000000000000000006004557f7fffffffffffffffffffffffffffffffffffffffffffffffffffffffffffffff60055573ca35b7d915458ef540ade6068dfe2f44e8fa733c600660006101000a81548173ffffffffffffffffffffffffffffffffffffffff021916908373ffffffffffffffffffffffffffffffffffffffff16021790555060b560f81b600660146101000a81548160ff021916908360f81c021790555034801561015b57600080fd5b50610265565b82805461016d90610204565b90600052602060002090601f01602090048101928261018f57600085556101d6565b82601f106101a857805160ff19168380011785556101d6565b828001600101855582156101d6579182015b828111156101d55782518255916020019190600101906101ba565b5b5090506101e391906101e7565b5090565b5b808211156102005760008160009055506001016101e8565b5090565b6000600282049050600182168061021c57607f821691505b602082108114156102305761022f610236565b5b50919050565b7f4e487b7100000000000000000000000000000000000000000000000000000000600052602260045260246000fd5b61061d806102746000396000f3fe608060405234801561001057600080fd5b50600436106100cf5760003560e01c8063767800de1161008c578063c298557811610066578063c2985578146101e4578063c6a898c5146101ee578063e5aa3d581461020c578063f2427d371461022a576100cf565b8063767800de1461018a5780637a4c2571146101a85780637e4e14cc146101c6576100cf565b8063074eef3f146100d45780631570c2cb146100f25780633a8b215314610110578063492bfa18146101305780634df7e3d01461014e5780635abe622b1461016c575b600080fd5b6100dc610248565b6040516100e99190610461565b60405180910390f35b6100fa61025b565b60405161010791906104b9565b60405180910390f35b610118610261565b6040516101279392919061042a565b60405180910390f35b610138610285565b6040516101459190610497565b60405180910390f35b610156610313565b6040516101639190610461565b60405180910390f35b610174610326565b604051610181919061047c565b60405180910390f35b61019261032c565b60405161019f919061040f565b60405180910390f35b6101b0610352565b6040516101bd919061047c565b60405180910390f35b6101ce610358565b6040516101db919061047c565b60405180910390f35b6101ec61035e565b005b6101f6610368565b60405161020391906104b9565b60405180910390f35b61021461036e565b604051610221919061047c565b60405180910390f35b610232610374565b60405161023f919061040f565b60405180910390f35b600660159054906101000a900460ff1681565b60075481565b60008060008033905060004290506000439050828282955095509550505050909192565b6000805461029290610575565b80601f01602080910402602001604051908101604052809291908181526020018280546102be90610575565b801561030b5780601f106102e05761010080835404028352916020019161030b565b820191906000526020600020905b8154815290600101906020018083116102ee57829003601f168201915b505050505081565b600160009054906101000a900460ff1681565b60085481565b600660009054906101000a900473ffffffffffffffffffffffffffffffffffffffff1681565b60055481565b60045481565b60006101c8905050565b60025481565b60035481565b600960009054906101000a900473ffffffffffffffffffffffffffffffffffffffff1681565b6103a3816104f0565b82525050565b6103b281610502565b82525050565b6103c18161050e565b82525050565b60006103d2826104d4565b6103dc81856104df565b93506103ec818560208601610542565b6103f5816105d6565b840191505092915050565b61040981610538565b82525050565b6000602082019050610424600083018461039a565b92915050565b600060608201905061043f600083018661039a565b61044c6020830185610400565b6104596040830184610400565b949350505050565b600060208201905061047660008301846103a9565b92915050565b600060208201905061049160008301846103b8565b92915050565b600060208201905081810360008301526104b181846103c7565b905092915050565b60006020820190506104ce6000830184610400565b92915050565b600081519050919050565b600082825260208201905092915050565b60006104fb82610518565b9050919050565b60008115159050919050565b6000819050919050565b600073ffffffffffffffffffffffffffffffffffffffff82169050919050565b6000819050919050565b60005b83811015610560578082015181840152602081019050610545565b8381111561056f576000848401525b50505050565b6000600282049050600182168061058d57607f821691505b602082108114156105a1576105a06105a7565b5b50919050565b7f4e487b7100000000000000000000000000000000000000000000000000000000600052602260045260246000fd5b6000601f19601f830116905091905056fea2646970667358221220e4219d56b6ebf1f6357d81135e40733fdc9210e7a039a7802f42076b09d43c2664736f6c63430008070033",
					"opcodes": "PUSH1 0x80 PUSH1 0x40 MSTORE PUSH1 0x40 MLOAD DUP1 PUSH1 0x40 ADD PUSH1 0x40 MSTORE DUP1 PUSH1 0xB DUP2 MSTORE PUSH1 0x20 ADD PUSH32 0x68656C6C6F20776F726C64000000000000000000000000000000000000000000 DUP2 MSTORE POP PUSH1 0x0 SWAP1 DUP1 MLOAD SWAP1 PUSH1 0x20 ADD SWAP1 PUSH2 0x4F SWAP3 SWAP2 SWAP1 PUSH2 0x161 JUMP JUMPDEST POP PUSH1 0x1 DUP1 PUSH1 0x0 PUSH2 0x100 EXP DUP2 SLOAD DUP2 PUSH1 0xFF MUL NOT AND SWAP1 DUP4 ISZERO ISZERO MUL OR SWAP1 SSTORE POP PUSH1 0x7B PUSH1 0x2 SSTORE PUSH32 0xFFFFFFFFFFFFFFFFFFFFFFFFFFFFFFFFFFFFFFFFFFFFFFFFFFFFFFFFFFFFFF85 PUSH1 0x3 SSTORE PUSH32 0x8000000000000000000000000000000000000000000000000000000000000000 PUSH1 0x4 SSTORE PUSH32 0x7FFFFFFFFFFFFFFFFFFFFFFFFFFFFFFFFFFFFFFFFFFFFFFFFFFFFFFFFFFFFFFF PUSH1 0x5 SSTORE PUSH20 0xCA35B7D915458EF540ADE6068DFE2F44E8FA733C PUSH1 0x6 PUSH1 0x0 PUSH2 0x100 EXP DUP2 SLOAD DUP2 PUSH20 0xFFFFFFFFFFFFFFFFFFFFFFFFFFFFFFFFFFFFFFFF MUL NOT AND SWAP1 DUP4 PUSH20 0xFFFFFFFFFFFFFFFFFFFFFFFFFFFFFFFFFFFFFFFF AND MUL OR SWAP1 SSTORE POP PUSH1 0xB5 PUSH1 0xF8 SHL PUSH1 0x6 PUSH1 0x14 PUSH2 0x100 EXP DUP2 SLOAD DUP2 PUSH1 0xFF MUL NOT AND SWAP1 DUP4 PUSH1 0xF8 SHR MUL OR SWAP1 SSTORE POP CALLVALUE DUP1 ISZERO PUSH2 0x15B JUMPI PUSH1 0x0 DUP1 REVERT JUMPDEST POP PUSH2 0x265 JUMP JUMPDEST DUP3 DUP1 SLOAD PUSH2 0x16D SWAP1 PUSH2 0x204 JUMP JUMPDEST SWAP1 PUSH1 0x0 MSTORE PUSH1 0x20 PUSH1 0x0 KECCAK256 SWAP1 PUSH1 0x1F ADD PUSH1 0x20 SWAP1 DIV DUP2 ADD SWAP3 DUP3 PUSH2 0x18F JUMPI PUSH1 0x0 DUP6 SSTORE PUSH2 0x1D6 JUMP JUMPDEST DUP3 PUSH1 0x1F LT PUSH2 0x1A8 JUMPI DUP1 MLOAD PUSH1 0xFF NOT AND DUP4 DUP1 ADD OR DUP6 SSTORE PUSH2 0x1D6 JUMP JUMPDEST DUP3 DUP1 ADD PUSH1 0x1 ADD DUP6 SSTORE DUP3 ISZERO PUSH2 0x1D6 JUMPI SWAP2 DUP3 ADD JUMPDEST DUP3 DUP2 GT ISZERO PUSH2 0x1D5 JUMPI DUP3 MLOAD DUP3 SSTORE SWAP2 PUSH1 0x20 ADD SWAP2 SWAP1 PUSH1 0x1 ADD SWAP1 PUSH2 0x1BA JUMP JUMPDEST JUMPDEST POP SWAP1 POP PUSH2 0x1E3 SWAP2 SWAP1 PUSH2 0x1E7 JUMP JUMPDEST POP SWAP1 JUMP JUMPDEST JUMPDEST DUP1 DUP3 GT ISZERO PUSH2 0x200 JUMPI PUSH1 0x0 DUP2 PUSH1 0x0 SWAP1 SSTORE POP PUSH1 0x1 ADD PUSH2 0x1E8 JUMP JUMPDEST POP SWAP1 JUMP JUMPDEST PUSH1 0x0 PUSH1 0x2 DUP3 DIV SWAP1 POP PUSH1 0x1 DUP3 AND DUP1 PUSH2 0x21C JUMPI PUSH1 0x7F DUP3 AND SWAP2 POP JUMPDEST PUSH1 0x20 DUP3 LT DUP2 EQ ISZERO PUSH2 0x230 JUMPI PUSH2 0x22F PUSH2 0x236 JUMP JUMPDEST JUMPDEST POP SWAP2 SWAP1 POP JUMP JUMPDEST PUSH32 0x4E487B7100000000000000000000000000000000000000000000000000000000 PUSH1 0x0 MSTORE PUSH1 0x22 PUSH1 0x4 MSTORE PUSH1 0x24 PUSH1 0x0 REVERT JUMPDEST PUSH2 0x61D DUP1 PUSH2 0x274 PUSH1 0x0 CODECOPY PUSH1 0x0 RETURN INVALID PUSH1 0x80 PUSH1 0x40 MSTORE CALLVALUE DUP1 ISZERO PUSH2 0x10 JUMPI PUSH1 0x0 DUP1 REVERT JUMPDEST POP PUSH1 0x4 CALLDATASIZE LT PUSH2 0xCF JUMPI PUSH1 0x0 CALLDATALOAD PUSH1 0xE0 SHR DUP1 PUSH4 0x767800DE GT PUSH2 0x8C JUMPI DUP1 PUSH4 0xC2985578 GT PUSH2 0x66 JUMPI DUP1 PUSH4 0xC2985578 EQ PUSH2 0x1E4 JUMPI DUP1 PUSH4 0xC6A898C5 EQ PUSH2 0x1EE JUMPI DUP1 PUSH4 0xE5AA3D58 EQ PUSH2 0x20C JUMPI DUP1 PUSH4 0xF2427D37 EQ PUSH2 0x22A JUMPI PUSH2 0xCF JUMP JUMPDEST DUP1 PUSH4 0x767800DE EQ PUSH2 0x18A JUMPI DUP1 PUSH4 0x7A4C2571 EQ PUSH2 0x1A8 JUMPI DUP1 PUSH4 0x7E4E14CC EQ PUSH2 0x1C6 JUMPI PUSH2 0xCF JUMP JUMPDEST DUP1 PUSH4 0x74EEF3F EQ PUSH2 0xD4 JUMPI DUP1 PUSH4 0x1570C2CB EQ PUSH2 0xF2 JUMPI DUP1 PUSH4 0x3A8B2153 EQ PUSH2 0x110 JUMPI DUP1 PUSH4 0x492BFA18 EQ PUSH2 0x130 JUMPI DUP1 PUSH4 0x4DF7E3D0 EQ PUSH2 0x14E JUMPI DUP1 PUSH4 0x5ABE622B EQ PUSH2 0x16C JUMPI JUMPDEST PUSH1 0x0 DUP1 REVERT JUMPDEST PUSH2 0xDC PUSH2 0x248 JUMP JUMPDEST PUSH1 0x40 MLOAD PUSH2 0xE9 SWAP2 SWAP1 PUSH2 0x461 JUMP JUMPDEST PUSH1 0x40 MLOAD DUP1 SWAP2 SUB SWAP1 RETURN JUMPDEST PUSH2 0xFA PUSH2 0x25B JUMP JUMPDEST PUSH1 0x40 MLOAD PUSH2 0x107 SWAP2 SWAP1 PUSH2 0x4B9 JUMP JUMPDEST PUSH1 0x40 MLOAD DUP1 SWAP2 SUB SWAP1 RETURN JUMPDEST PUSH2 0x118 PUSH2 0x261 JUMP JUMPDEST PUSH1 0x40 MLOAD PUSH2 0x127 SWAP4 SWAP3 SWAP2 SWAP1 PUSH2 0x42A JUMP JUMPDEST PUSH1 0x40 MLOAD DUP1 SWAP2 SUB SWAP1 RETURN JUMPDEST PUSH2 0x138 PUSH2 0x285 JUMP JUMPDEST PUSH1 0x40 MLOAD PUSH2 0x145 SWAP2 SWAP1 PUSH2 0x497 JUMP JUMPDEST PUSH1 0x40 MLOAD DUP1 SWAP2 SUB SWAP1 RETURN JUMPDEST PUSH2 0x156 PUSH2 0x313 JUMP JUMPDEST PUSH1 0x40 MLOAD PUSH2 0x163 SWAP2 SWAP1 PUSH2 0x461 JUMP JUMPDEST PUSH1 0x40 MLOAD DUP1 SWAP2 SUB SWAP1 RETURN JUMPDEST PUSH2 0x174 PUSH2 0x326 JUMP JUMPDEST PUSH1 0x40 MLOAD PUSH2 0x181 SWAP2 SWAP1 PUSH2 0x47C JUMP JUMPDEST PUSH1 0x40 MLOAD DUP1 SWAP2 SUB SWAP1 RETURN JUMPDEST PUSH2 0x192 PUSH2 0x32C JUMP JUMPDEST PUSH1 0x40 MLOAD PUSH2 0x19F SWAP2 SWAP1 PUSH2 0x40F JUMP JUMPDEST PUSH1 0x40 MLOAD DUP1 SWAP2 SUB SWAP1 RETURN JUMPDEST PUSH2 0x1B0 PUSH2 0x352 JUMP JUMPDEST PUSH1 0x40 MLOAD PUSH2 0x1BD SWAP2 SWAP1 PUSH2 0x47C JUMP JUMPDEST PUSH1 0x40 MLOAD DUP1 SWAP2 SUB SWAP1 RETURN JUMPDEST PUSH2 0x1CE PUSH2 0x358 JUMP JUMPDEST PUSH1 0x40 MLOAD PUSH2 0x1DB SWAP2 SWAP1 PUSH2 0x47C JUMP JUMPDEST PUSH1 0x40 MLOAD DUP1 SWAP2 SUB SWAP1 RETURN JUMPDEST PUSH2 0x1EC PUSH2 0x35E JUMP JUMPDEST STOP JUMPDEST PUSH2 0x1F6 PUSH2 0x368 JUMP JUMPDEST PUSH1 0x40 MLOAD PUSH2 0x203 SWAP2 SWAP1 PUSH2 0x4B9 JUMP JUMPDEST PUSH1 0x40 MLOAD DUP1 SWAP2 SUB SWAP1 RETURN JUMPDEST PUSH2 0x214 PUSH2 0x36E JUMP JUMPDEST PUSH1 0x40 MLOAD PUSH2 0x221 SWAP2 SWAP1 PUSH2 0x47C JUMP JUMPDEST PUSH1 0x40 MLOAD DUP1 SWAP2 SUB SWAP1 RETURN JUMPDEST PUSH2 0x232 PUSH2 0x374 JUMP JUMPDEST PUSH1 0x40 MLOAD PUSH2 0x23F SWAP2 SWAP1 PUSH2 0x40F JUMP JUMPDEST PUSH1 0x40 MLOAD DUP1 SWAP2 SUB SWAP1 RETURN JUMPDEST PUSH1 0x6 PUSH1 0x15 SWAP1 SLOAD SWAP1 PUSH2 0x100 EXP SWAP1 DIV PUSH1 0xFF AND DUP2 JUMP JUMPDEST PUSH1 0x7 SLOAD DUP2 JUMP JUMPDEST PUSH1 0x0 DUP1 PUSH1 0x0 DUP1 CALLER SWAP1 POP PUSH1 0x0 TIMESTAMP SWAP1 POP PUSH1 0x0 NUMBER SWAP1 POP DUP3 DUP3 DUP3 SWAP6 POP SWAP6 POP SWAP6 POP POP POP POP SWAP1 SWAP2 SWAP3 JUMP JUMPDEST PUSH1 0x0 DUP1 SLOAD PUSH2 0x292 SWAP1 PUSH2 0x575 JUMP JUMPDEST DUP1 PUSH1 0x1F ADD PUSH1 0x20 DUP1 SWAP2 DIV MUL PUSH1 0x20 ADD PUSH1 0x40 MLOAD SWAP1 DUP2 ADD PUSH1 0x40 MSTORE DUP1 SWAP3 SWAP2 SWAP1 DUP2 DUP2 MSTORE PUSH1 0x20 ADD DUP3 DUP1 SLOAD PUSH2 0x2BE SWAP1 PUSH2 0x575 JUMP JUMPDEST DUP1 ISZERO PUSH2 0x30B JUMPI DUP1 PUSH1 0x1F LT PUSH2 0x2E0 JUMPI PUSH2 0x100 DUP1 DUP4 SLOAD DIV MUL DUP4 MSTORE SWAP2 PUSH1 0x20 ADD SWAP2 PUSH2 0x30B JUMP JUMPDEST DUP3 ADD SWAP2 SWAP1 PUSH1 0x0 MSTORE PUSH1 0x20 PUSH1 0x0 KECCAK256 SWAP1 JUMPDEST DUP2 SLOAD DUP2 MSTORE SWAP1 PUSH1 0x1 ADD SWAP1 PUSH1 0x20 ADD DUP1 DUP4 GT PUSH2 0x2EE JUMPI DUP3 SWAP1 SUB PUSH1 0x1F AND DUP3 ADD SWAP2 JUMPDEST POP POP POP POP POP DUP2 JUMP JUMPDEST PUSH1 0x1 PUSH1 0x0 SWAP1 SLOAD SWAP1 PUSH2 0x100 EXP SWAP1 DIV PUSH1 0xFF AND DUP2 JUMP JUMPDEST PUSH1 0x8 SLOAD DUP2 JUMP JUMPDEST PUSH1 0x6 PUSH1 0x0 SWAP1 SLOAD SWAP1 PUSH2 0x100 EXP SWAP1 DIV PUSH20 0xFFFFFFFFFFFFFFFFFFFFFFFFFFFFFFFFFFFFFFFF AND DUP2 JUMP JUMPDEST PUSH1 0x5 SLOAD DUP2 JUMP JUMPDEST PUSH1 0x4 SLOAD DUP2 JUMP JUMPDEST PUSH1 0x0 PUSH2 0x1C8 SWAP1 POP POP JUMP JUMPDEST PUSH1 0x2 SLOAD DUP2 JUMP JUMPDEST PUSH1 0x3 SLOAD DUP2 JUMP JUMPDEST PUSH1 0x9 PUSH1 0x0 SWAP1 SLOAD SWAP1 PUSH2 0x100 EXP SWAP1 DIV PUSH20 0xFFFFFFFFFFFFFFFFFFFFFFFFFFFFFFFFFFFFFFFF AND DUP2 JUMP JUMPDEST PUSH2 0x3A3 DUP2 PUSH2 0x4F0 JUMP JUMPDEST DUP3 MSTORE POP POP JUMP JUMPDEST PUSH2 0x3B2 DUP2 PUSH2 0x502 JUMP JUMPDEST DUP3 MSTORE POP POP JUMP JUMPDEST PUSH2 0x3C1 DUP2 PUSH2 0x50E JUMP JUMPDEST DUP3 MSTORE POP POP JUMP JUMPDEST PUSH1 0x0 PUSH2 0x3D2 DUP3 PUSH2 0x4D4 JUMP JUMPDEST PUSH2 0x3DC DUP2 DUP6 PUSH2 0x4DF JUMP JUMPDEST SWAP4 POP PUSH2 0x3EC DUP2 DUP6 PUSH1 0x20 DUP7 ADD PUSH2 0x542 JUMP JUMPDEST PUSH2 0x3F5 DUP2 PUSH2 0x5D6 JUMP JUMPDEST DUP5 ADD SWAP2 POP POP SWAP3 SWAP2 POP POP JUMP JUMPDEST PUSH2 0x409 DUP2 PUSH2 0x538 JUMP JUMPDEST DUP3 MSTORE POP POP JUMP JUMPDEST PUSH1 0x0 PUSH1 0x20 DUP3 ADD SWAP1 POP PUSH2 0x424 PUSH1 0x0 DUP4 ADD DUP5 PUSH2 0x39A JUMP JUMPDEST SWAP3 SWAP2 POP POP JUMP JUMPDEST PUSH1 0x0 PUSH1 0x60 DUP3 ADD SWAP1 POP PUSH2 0x43F PUSH1 0x0 DUP4 ADD DUP7 PUSH2 0x39A JUMP JUMPDEST PUSH2 0x44C PUSH1 0x20 DUP4 ADD DUP6 PUSH2 0x400 JUMP JUMPDEST PUSH2 0x459 PUSH1 0x40 DUP4 ADD DUP5 PUSH2 0x400 JUMP JUMPDEST SWAP5 SWAP4 POP POP POP POP JUMP JUMPDEST PUSH1 0x0 PUSH1 0x20 DUP3 ADD SWAP1 POP PUSH2 0x476 PUSH1 0x0 DUP4 ADD DUP5 PUSH2 0x3A9 JUMP JUMPDEST SWAP3 SWAP2 POP POP JUMP JUMPDEST PUSH1 0x0 PUSH1 0x20 DUP3 ADD SWAP1 POP PUSH2 0x491 PUSH1 0x0 DUP4 ADD DUP5 PUSH2 0x3B8 JUMP JUMPDEST SWAP3 SWAP2 POP POP JUMP JUMPDEST PUSH1 0x0 PUSH1 0x20 DUP3 ADD SWAP1 POP DUP2 DUP2 SUB PUSH1 0x0 DUP4 ADD MSTORE PUSH2 0x4B1 DUP2 DUP5 PUSH2 0x3C7 JUMP JUMPDEST SWAP1 POP SWAP3 SWAP2 POP POP JUMP JUMPDEST PUSH1 0x0 PUSH1 0x20 DUP3 ADD SWAP1 POP PUSH2 0x4CE PUSH1 0x0 DUP4 ADD DUP5 PUSH2 0x400 JUMP JUMPDEST SWAP3 SWAP2 POP POP JUMP JUMPDEST PUSH1 0x0 DUP2 MLOAD SWAP1 POP SWAP2 SWAP1 POP JUMP JUMPDEST PUSH1 0x0 DUP3 DUP3 MSTORE PUSH1 0x20 DUP3 ADD SWAP1 POP SWAP3 SWAP2 POP POP JUMP JUMPDEST PUSH1 0x0 PUSH2 0x4FB DUP3 PUSH2 0x518 JUMP JUMPDEST SWAP1 POP SWAP2 SWAP1 POP JUMP JUMPDEST PUSH1 0x0 DUP2 ISZERO ISZERO SWAP1 POP SWAP2 SWAP1 POP JUMP JUMPDEST PUSH1 0x0 DUP2 SWAP1 POP SWAP2 SWAP1 POP JUMP JUMPDEST PUSH1 0x0 PUSH20 0xFFFFFFFFFFFFFFFFFFFFFFFFFFFFFFFFFFFFFFFF DUP3 AND SWAP1 POP SWAP2 SWAP1 POP JUMP JUMPDEST PUSH1 0x0 DUP2 SWAP1 POP SWAP2 SWAP1 POP JUMP JUMPDEST PUSH1 0x0 JUMPDEST DUP4 DUP2 LT ISZERO PUSH2 0x560 JUMPI DUP1 DUP3 ADD MLOAD DUP2 DUP5 ADD MSTORE PUSH1 0x20 DUP2 ADD SWAP1 POP PUSH2 0x545 JUMP JUMPDEST DUP4 DUP2 GT ISZERO PUSH2 0x56F JUMPI PUSH1 0x0 DUP5 DUP5 ADD MSTORE JUMPDEST POP POP POP POP JUMP JUMPDEST PUSH1 0x0 PUSH1 0x2 DUP3 DIV SWAP1 POP PUSH1 0x1 DUP3 AND DUP1 PUSH2 0x58D JUMPI PUSH1 0x7F DUP3 AND SWAP2 POP JUMPDEST PUSH1 0x20 DUP3 LT DUP2 EQ ISZERO PUSH2 0x5A1 JUMPI PUSH2 0x5A0 PUSH2 0x5A7 JUMP JUMPDEST JUMPDEST POP SWAP2 SWAP1 POP JUMP JUMPDEST PUSH32 0x4E487B7100000000000000000000000000000000000000000000000000000000 PUSH1 0x0 MSTORE PUSH1 0x22 PUSH1 0x4 MSTORE PUSH1 0x24 PUSH1 0x0 REVERT JUMPDEST PUSH1 0x0 PUSH1 0x1F NOT PUSH1 0x1F DUP4 ADD AND SWAP1 POP SWAP2 SWAP1 POP JUMP INVALID LOG2 PUSH5 0x6970667358 0x22 SLT KECCAK256 0xE4 0x21 SWAP14 JUMP 0xB6 0xEB CALL 0xF6 CALLDATALOAD PUSH30 0x81135E40733FDC9210E7A039A7802F42076B09D43C2664736F6C63430008 SMOD STOP CALLER "
				},
				"gasEstimates": {
					"creation": {
						"codeDepositCost": "313000",
						"executionCost": "infinite",
						"totalCost": "infinite"
					},
					"external": {
						"addr()": "2537",
						"b()": "2560",
						"defaultAddr()": "2602",
						"defaultBoo()": "2522",
						"defaultInt()": "2540",
						"defaultUint()": "2452",
						"foo()": "179",
						"globalVariables()": "infinite",
						"i()": "2495",
						"maxInt()": "2474",
						"minInt()": "2496",
						"myString()": "infinite",
						"u()": "2473"
					}
				},
				"methodIdentifiers": {
					"addr()": "767800de",
					"b()": "4df7e3d0",
					"defaultAddr()": "f2427d37",
					"defaultBoo()": "074eef3f",
					"defaultInt()": "5abe622b",
					"defaultUint()": "1570c2cb",
					"foo()": "c2985578",
					"globalVariables()": "3a8b2153",
					"i()": "e5aa3d58",
					"maxInt()": "7a4c2571",
					"minInt()": "7e4e14cc",
					"myString()": "492bfa18",
					"u()": "c6a898c5"
				}
			},
			"storageLayout": {
				"storage": [
					{
						"astId": 4,
						"contract": "helloWorld.sol:HelloWorld",
						"label": "myString",
						"offset": 0,
						"slot": "0",
						"type": "t_string_storage"
					},
					{
						"astId": 7,
						"contract": "helloWorld.sol:HelloWorld",
						"label": "b",
						"offset": 0,
						"slot": "1",
						"type": "t_bool"
					},
					{
						"astId": 10,
						"contract": "helloWorld.sol:HelloWorld",
						"label": "u",
						"offset": 0,
						"slot": "2",
						"type": "t_uint256"
					},
					{
						"astId": 14,
						"contract": "helloWorld.sol:HelloWorld",
						"label": "i",
						"offset": 0,
						"slot": "3",
						"type": "t_int256"
					},
					{
						"astId": 21,
						"contract": "helloWorld.sol:HelloWorld",
						"label": "minInt",
						"offset": 0,
						"slot": "4",
						"type": "t_int256"
					},
					{
						"astId": 28,
						"contract": "helloWorld.sol:HelloWorld",
						"label": "maxInt",
						"offset": 0,
						"slot": "5",
						"type": "t_int256"
					},
					{
						"astId": 31,
						"contract": "helloWorld.sol:HelloWorld",
						"label": "addr",
						"offset": 0,
						"slot": "6",
						"type": "t_address"
					},
					{
						"astId": 34,
						"contract": "helloWorld.sol:HelloWorld",
						"label": "a",
						"offset": 20,
						"slot": "6",
						"type": "t_bytes1"
					},
					{
						"astId": 36,
						"contract": "helloWorld.sol:HelloWorld",
						"label": "defaultBoo",
						"offset": 21,
						"slot": "6",
						"type": "t_bool"
					},
					{
						"astId": 38,
						"contract": "helloWorld.sol:HelloWorld",
						"label": "defaultUint",
						"offset": 0,
						"slot": "7",
						"type": "t_uint256"
					},
					{
						"astId": 40,
						"contract": "helloWorld.sol:HelloWorld",
						"label": "defaultInt",
						"offset": 0,
						"slot": "8",
						"type": "t_int256"
					},
					{
						"astId": 42,
						"contract": "helloWorld.sol:HelloWorld",
						"label": "defaultAddr",
						"offset": 0,
						"slot": "9",
						"type": "t_address"
					}
				],
				"types": {
					"t_address": {
						"encoding": "inplace",
						"label": "address",
						"numberOfBytes": "20"
					},
					"t_bool": {
						"encoding": "inplace",
						"label": "bool",
						"numberOfBytes": "1"
					},
					"t_bytes1": {
						"encoding": "inplace",
						"label": "bytes1",
						"numberOfBytes": "1"
					},
					"t_int256": {
						"encoding": "inplace",
						"label": "int256",
						"numberOfBytes": "32"
					},
					"t_string_storage": {
						"encoding": "bytes",
						"label": "string",
						"numberOfBytes": "32"
					},
					"t_uint256": {
						"encoding": "inplace",
						"label": "uint256",
						"numberOfBytes": "32"
					}
				}
			},
			"userdoc": {
				"kind": "user",
				"methods": {},
				"version": 1
			}
		}
	}
}