{
	"hands-on-task/todo.sol": {
		"TodoList": {
			"abi": [
				{
					"inputs": [
						{
							"internalType": "string",
							"name": "_text",
							"type": "string"
						}
					],
					"name": "create",
					"outputs": [],
					"stateMutability": "nonpayable",
					"type": "function"
				},
				{
					"inputs": [
						{
							"internalType": "uint256",
							"name": "_index",
							"type": "uint256"
						}
					],
					"name": "get",
					"outputs": [
						{
							"internalType": "string",
							"name": "",
							"type": "string"
						},
						{
							"internalType": "bool",
							"name": "",
							"type": "bool"
						}
					],
					"stateMutability": "view",
					"type": "function"
				},
				{
					"inputs": [
						{
							"internalType": "uint256",
							"name": "",
							"type": "uint256"
						}
					],
					"name": "todos",
					"outputs": [
						{
							"internalType": "string",
							"name": "text",
							"type": "string"
						},
						{
							"internalType": "bool",
							"name": "completed",
							"type": "bool"
						}
					],
					"stateMutability": "view",
					"type": "function"
				},
				{
					"inputs": [
						{
							"internalType": "uint256",
							"name": "_index",
							"type": "uint256"
						}
					],
					"name": "toggleCcompleted",
					"outputs": [],
					"stateMutability": "nonpayable",
					"type": "function"
				},
				{
					"inputs": [
						{
							"internalType": "uint256",
							"name": "_index",
							"type": "uint256"
						},
						{
							"internalType": "string",
							"name": "_text",
							"type": "string"
						}
					],
					"name": "updateText",
					"outputs": [],
					"stateMutability": "nonpayable",
					"type": "function"
				}
			],
			"devdoc": {
				"kind": "dev",
				"methods": {},
				"version": 1
			},
			"evm": {
				"assembly": "    /* \"hands-on-task/todo.sol\":102:976  contract TodoList{... */\n  mstore(0x40, 0x80)\n  callvalue\n  dup1\n  iszero\n  tag_1\n  jumpi\n  0x00\n  dup1\n  revert\ntag_1:\n  pop\n  dataSize(sub_0)\n  dup1\n  dataOffset(sub_0)\n  0x00\n  codecopy\n  0x00\n  return\nstop\n\nsub_0: assembly {\n        /* \"hands-on-task/todo.sol\":102:976  contract TodoList{... */\n      mstore(0x40, 0x80)\n      callvalue\n      dup1\n      iszero\n      tag_1\n      jumpi\n      0x00\n      dup1\n      revert\n    tag_1:\n      pop\n      jumpi(tag_2, lt(calldatasize, 0x04))\n      shr(0xe0, calldataload(0x00))\n      dup1\n      0x9507d39a\n      eq\n      tag_3\n      jumpi\n      dup1\n      0xb6a46b3b\n      eq\n      tag_4\n      jumpi\n      dup1\n      0xbc8bc2b4\n      eq\n      tag_5\n      jumpi\n      dup1\n      0xcd111614\n      eq\n      tag_6\n      jumpi\n      dup1\n      0xd7d91a19\n      eq\n      tag_7\n      jumpi\n    tag_2:\n      0x00\n      dup1\n      revert\n        /* \"hands-on-task/todo.sol\":692:854  function get(uint _index) external view returns(string memory, bool){... */\n    tag_3:\n      tag_8\n      0x04\n      dup1\n      calldatasize\n      sub\n      dup2\n      add\n      swap1\n      tag_9\n      swap2\n      swap1\n      tag_10\n      jump\t// in\n    tag_9:\n      tag_11\n      jump\t// in\n    tag_8:\n      mload(0x40)\n      tag_12\n      swap3\n      swap2\n      swap1\n      tag_13\n      jump\t// in\n    tag_12:\n      mload(0x40)\n      dup1\n      swap2\n      sub\n      swap1\n      return\n        /* \"hands-on-task/todo.sol\":307:452  function create(string calldata _text) external{... */\n    tag_4:\n      tag_14\n      0x04\n      dup1\n      calldatasize\n      sub\n      dup2\n      add\n      swap1\n      tag_15\n      swap2\n      swap1\n      tag_16\n      jump\t// in\n    tag_15:\n      tag_17\n      jump\t// in\n    tag_14:\n      stop\n        /* \"hands-on-task/todo.sol\":195:214  Todo[] public todos */\n    tag_5:\n      tag_18\n      0x04\n      dup1\n      calldatasize\n      sub\n      dup2\n      add\n      swap1\n      tag_19\n      swap2\n      swap1\n      tag_10\n      jump\t// in\n    tag_19:\n      tag_20\n      jump\t// in\n    tag_18:\n      mload(0x40)\n      tag_21\n      swap3\n      swap2\n      swap1\n      tag_13\n      jump\t// in\n    tag_21:\n      mload(0x40)\n      dup1\n      swap2\n      sub\n      swap1\n      return\n        /* \"hands-on-task/todo.sol\":458:686  function updateText(uint _index, string calldata _text) external{... */\n    tag_6:\n      tag_22\n      0x04\n      dup1\n      calldatasize\n      sub\n      dup2\n      add\n      swap1\n      tag_23\n      swap2\n      swap1\n      tag_24\n      jump\t// in\n    tag_23:\n      tag_25\n      jump\t// in\n    tag_22:\n      stop\n        /* \"hands-on-task/todo.sol\":860:973  function toggleCcompleted(uint _index) external{... */\n    tag_7:\n      tag_26\n      0x04\n      dup1\n      calldatasize\n      sub\n      dup2\n      add\n      swap1\n      tag_27\n      swap2\n      swap1\n      tag_10\n      jump\t// in\n    tag_27:\n      tag_28\n      jump\t// in\n    tag_26:\n      stop\n        /* \"hands-on-task/todo.sol\":692:854  function get(uint _index) external view returns(string memory, bool){... */\n    tag_11:\n        /* \"hands-on-task/todo.sol\":740:753  string memory */\n      0x60\n        /* \"hands-on-task/todo.sol\":755:759  bool */\n      0x00\n        /* \"hands-on-task/todo.sol\":770:787  Todo storage todo */\n      dup1\n        /* \"hands-on-task/todo.sol\":790:795  todos */\n      0x00\n        /* \"hands-on-task/todo.sol\":796:802  _index */\n      dup5\n        /* \"hands-on-task/todo.sol\":790:803  todos[_index] */\n      dup2\n      sload\n      dup2\n      lt\n      tag_30\n      jumpi\n      tag_31\n      tag_32\n      jump\t// in\n    tag_31:\n    tag_30:\n      swap1\n      0x00\n      mstore\n      keccak256(0x00, 0x20)\n      swap1\n      0x02\n      mul\n      add\n        /* \"hands-on-task/todo.sol\":770:803  Todo storage todo = todos[_index] */\n      swap1\n      pop\n        /* \"hands-on-task/todo.sol\":821:825  todo */\n      dup1\n        /* \"hands-on-task/todo.sol\":821:830  todo.text */\n      0x00\n      add\n        /* \"hands-on-task/todo.sol\":832:836  todo */\n      dup2\n        /* \"hands-on-task/todo.sol\":832:846  todo.completed */\n      0x01\n      add\n      0x00\n      swap1\n      sload\n      swap1\n      0x0100\n      exp\n      swap1\n      div\n      0xff\n      and\n        /* \"hands-on-task/todo.sol\":813:847  return (todo.text, todo.completed) */\n      dup2\n      dup1\n      sload\n      tag_34\n      swap1\n      tag_35\n      jump\t// in\n    tag_34:\n      dup1\n      0x1f\n      add\n      0x20\n      dup1\n      swap2\n      div\n      mul\n      0x20\n      add\n      mload(0x40)\n      swap1\n      dup2\n      add\n      0x40\n      mstore\n      dup1\n      swap3\n      swap2\n      swap1\n      dup2\n      dup2\n      mstore\n      0x20\n      add\n      dup3\n      dup1\n      sload\n      tag_36\n      swap1\n      tag_35\n      jump\t// in\n    tag_36:\n      dup1\n      iszero\n      tag_37\n      jumpi\n      dup1\n      0x1f\n      lt\n      tag_38\n      jumpi\n      0x0100\n      dup1\n      dup4\n      sload\n      div\n      mul\n      dup4\n      mstore\n      swap2\n      0x20\n      add\n      swap2\n      jump(tag_37)\n    tag_38:\n      dup3\n      add\n      swap2\n      swap1\n      0x00\n      mstore\n      keccak256(0x00, 0x20)\n      swap1\n    tag_39:\n      dup2\n      sload\n      dup2\n      mstore\n      swap1\n      0x01\n      add\n      swap1\n      0x20\n      add\n      dup1\n      dup4\n      gt\n      tag_39\n      jumpi\n      dup3\n      swap1\n      sub\n      0x1f\n      and\n      dup3\n      add\n      swap2\n    tag_37:\n      pop\n      pop\n      pop\n      pop\n      pop\n      swap2\n      pop\n      swap3\n      pop\n      swap3\n      pop\n      pop\n        /* \"hands-on-task/todo.sol\":692:854  function get(uint _index) external view returns(string memory, bool){... */\n      swap2\n      pop\n      swap2\n      jump\t// out\n        /* \"hands-on-task/todo.sol\":307:452  function create(string calldata _text) external{... */\n    tag_17:\n        /* \"hands-on-task/todo.sol\":364:369  todos */\n      0x00\n        /* \"hands-on-task/todo.sol\":375:444  Todo({... */\n      mload(0x40)\n      dup1\n      0x40\n      add\n      0x40\n      mstore\n      dup1\n        /* \"hands-on-task/todo.sol\":399:404  _text */\n      dup5\n      dup5\n        /* \"hands-on-task/todo.sol\":375:444  Todo({... */\n      dup1\n      dup1\n      0x1f\n      add\n      0x20\n      dup1\n      swap2\n      div\n      mul\n      0x20\n      add\n      mload(0x40)\n      swap1\n      dup2\n      add\n      0x40\n      mstore\n      dup1\n      swap4\n      swap3\n      swap2\n      swap1\n      dup2\n      dup2\n      mstore\n      0x20\n      add\n      dup4\n      dup4\n      dup1\n      dup3\n      dup5\n      calldatacopy\n      0x00\n      dup2\n      dup5\n      add\n      mstore\n      not(0x1f)\n      0x1f\n      dup3\n      add\n      and\n      swap1\n      pop\n      dup1\n      dup4\n      add\n      swap3\n      pop\n      pop\n      pop\n      pop\n      pop\n      pop\n      pop\n      dup2\n      mstore\n      0x20\n      add\n        /* \"hands-on-task/todo.sol\":428:433  false */\n      0x00\n        /* \"hands-on-task/todo.sol\":375:444  Todo({... */\n      iszero\n      iszero\n      dup2\n      mstore\n      pop\n        /* \"hands-on-task/todo.sol\":364:445  todos.push(Todo({... */\n      swap1\n      dup1\n      0x01\n      dup2\n      sload\n      add\n      dup1\n      dup3\n      sstore\n      dup1\n      swap2\n      pop\n      pop\n      0x01\n      swap1\n      sub\n      swap1\n      0x00\n      mstore\n      keccak256(0x00, 0x20)\n      swap1\n      0x02\n      mul\n      add\n      0x00\n      swap1\n      swap2\n      swap1\n      swap2\n      swap1\n      swap2\n      pop\n      0x00\n      dup3\n      add\n      mload\n      dup2\n      0x00\n      add\n      swap1\n      dup1\n      mload\n      swap1\n      0x20\n      add\n      swap1\n      tag_42\n      swap3\n      swap2\n      swap1\n      tag_43\n      jump\t// in\n    tag_42:\n      pop\n      0x20\n      dup3\n      add\n      mload\n      dup2\n      0x01\n      add\n      exp(0x0100, 0x00)\n      dup2\n      sload\n      dup2\n      0xff\n      mul\n      not\n      and\n      swap1\n      dup4\n      iszero\n      iszero\n      mul\n      or\n      swap1\n      sstore\n      pop\n      pop\n      pop\n        /* \"hands-on-task/todo.sol\":307:452  function create(string calldata _text) external{... */\n      pop\n      pop\n      jump\t// out\n        /* \"hands-on-task/todo.sol\":195:214  Todo[] public todos */\n    tag_20:\n      0x00\n      dup2\n      dup2\n      sload\n      dup2\n      lt\n      tag_44\n      jumpi\n      0x00\n      dup1\n      revert\n    tag_44:\n      swap1\n      0x00\n      mstore\n      keccak256(0x00, 0x20)\n      swap1\n      0x02\n      mul\n      add\n      0x00\n      swap2\n      pop\n      swap1\n      pop\n      dup1\n      0x00\n      add\n      dup1\n      sload\n      tag_46\n      swap1\n      tag_35\n      jump\t// in\n    tag_46:\n      dup1\n      0x1f\n      add\n      0x20\n      dup1\n      swap2\n      div\n      mul\n      0x20\n      add\n      mload(0x40)\n      swap1\n      dup2\n      add\n      0x40\n      mstore\n      dup1\n      swap3\n      swap2\n      swap1\n      dup2\n      dup2\n      mstore\n      0x20\n      add\n      dup3\n      dup1\n      sload\n      tag_47\n      swap1\n      tag_35\n      jump\t// in\n    tag_47:\n      dup1\n      iszero\n      tag_48\n      jumpi\n      dup1\n      0x1f\n      lt\n      tag_49\n      jumpi\n      0x0100\n      dup1\n      dup4\n      sload\n      div\n      mul\n      dup4\n      mstore\n      swap2\n      0x20\n      add\n      swap2\n      jump(tag_48)\n    tag_49:\n      dup3\n      add\n      swap2\n      swap1\n      0x00\n      mstore\n      keccak256(0x00, 0x20)\n      swap1\n    tag_50:\n      dup2\n      sload\n      dup2\n      mstore\n      swap1\n      0x01\n      add\n      swap1\n      0x20\n      add\n      dup1\n      dup4\n      gt\n      tag_50\n      jumpi\n      dup3\n      swap1\n      sub\n      0x1f\n      and\n      dup3\n      add\n      swap2\n    tag_48:\n      pop\n      pop\n      pop\n      pop\n      pop\n      swap1\n      dup1\n      0x01\n      add\n      0x00\n      swap1\n      sload\n      swap1\n      0x0100\n      exp\n      swap1\n      div\n      0xff\n      and\n      swap1\n      pop\n      dup3\n      jump\t// out\n        /* \"hands-on-task/todo.sol\":458:686  function updateText(uint _index, string calldata _text) external{... */\n    tag_25:\n        /* \"hands-on-task/todo.sol\":553:558  _text */\n      dup2\n      dup2\n        /* \"hands-on-task/todo.sol\":532:537  todos */\n      0x00\n        /* \"hands-on-task/todo.sol\":538:544  _index */\n      dup6\n        /* \"hands-on-task/todo.sol\":532:545  todos[_index] */\n      dup2\n      sload\n      dup2\n      lt\n      tag_52\n      jumpi\n      tag_53\n      tag_32\n      jump\t// in\n    tag_53:\n    tag_52:\n      swap1\n      0x00\n      mstore\n      keccak256(0x00, 0x20)\n      swap1\n      0x02\n      mul\n      add\n        /* \"hands-on-task/todo.sol\":532:550  todos[_index].text */\n      0x00\n      add\n        /* \"hands-on-task/todo.sol\":532:558  todos[_index].text = _text */\n      swap2\n      swap1\n      tag_55\n      swap3\n      swap2\n      swap1\n      tag_56\n      jump\t// in\n    tag_55:\n      pop\n        /* \"hands-on-task/todo.sol\":568:585  Todo storage todo */\n      0x00\n        /* \"hands-on-task/todo.sol\":588:593  todos */\n      dup1\n        /* \"hands-on-task/todo.sol\":594:600  _index */\n      dup5\n        /* \"hands-on-task/todo.sol\":588:601  todos[_index] */\n      dup2\n      sload\n      dup2\n      lt\n      tag_57\n      jumpi\n      tag_58\n      tag_32\n      jump\t// in\n    tag_58:\n    tag_57:\n      swap1\n      0x00\n      mstore\n      keccak256(0x00, 0x20)\n      swap1\n      0x02\n      mul\n      add\n        /* \"hands-on-task/todo.sol\":568:601  Todo storage todo = todos[_index] */\n      swap1\n      pop\n        /* \"hands-on-task/todo.sol\":674:679  _text */\n      dup3\n      dup3\n        /* \"hands-on-task/todo.sol\":662:666  todo */\n      dup3\n        /* \"hands-on-task/todo.sol\":662:671  todo.text */\n      0x00\n      add\n        /* \"hands-on-task/todo.sol\":662:679  todo.text = _text */\n      swap2\n      swap1\n      tag_60\n      swap3\n      swap2\n      swap1\n      tag_56\n      jump\t// in\n    tag_60:\n      pop\n        /* \"hands-on-task/todo.sol\":522:686  {... */\n      pop\n        /* \"hands-on-task/todo.sol\":458:686  function updateText(uint _index, string calldata _text) external{... */\n      pop\n      pop\n      pop\n      jump\t// out\n        /* \"hands-on-task/todo.sol\":860:973  function toggleCcompleted(uint _index) external{... */\n    tag_28:\n        /* \"hands-on-task/todo.sol\":943:948  todos */\n      0x00\n        /* \"hands-on-task/todo.sol\":949:955  _index */\n      dup2\n        /* \"hands-on-task/todo.sol\":943:956  todos[_index] */\n      dup2\n      sload\n      dup2\n      lt\n      tag_62\n      jumpi\n      tag_63\n      tag_32\n      jump\t// in\n    tag_63:\n    tag_62:\n      swap1\n      0x00\n      mstore\n      keccak256(0x00, 0x20)\n      swap1\n      0x02\n      mul\n      add\n        /* \"hands-on-task/todo.sol\":943:966  todos[_index].completed */\n      0x01\n      add\n      0x00\n      swap1\n      sload\n      swap1\n      0x0100\n      exp\n      swap1\n      div\n      0xff\n      and\n        /* \"hands-on-task/todo.sol\":942:966  !todos[_index].completed */\n      iszero\n        /* \"hands-on-task/todo.sol\":916:921  todos */\n      0x00\n        /* \"hands-on-task/todo.sol\":922:928  _index */\n      dup3\n        /* \"hands-on-task/todo.sol\":916:929  todos[_index] */\n      dup2\n      sload\n      dup2\n      lt\n      tag_65\n      jumpi\n      tag_66\n      tag_32\n      jump\t// in\n    tag_66:\n    tag_65:\n      swap1\n      0x00\n      mstore\n      keccak256(0x00, 0x20)\n      swap1\n      0x02\n      mul\n      add\n        /* \"hands-on-task/todo.sol\":916:939  todos[_index].completed */\n      0x01\n      add\n      0x00\n        /* \"hands-on-task/todo.sol\":916:966  todos[_index].completed = !todos[_index].completed */\n      0x0100\n      exp\n      dup2\n      sload\n      dup2\n      0xff\n      mul\n      not\n      and\n      swap1\n      dup4\n      iszero\n      iszero\n      mul\n      or\n      swap1\n      sstore\n      pop\n        /* \"hands-on-task/todo.sol\":860:973  function toggleCcompleted(uint _index) external{... */\n      pop\n      jump\t// out\n    tag_43:\n      dup3\n      dup1\n      sload\n      tag_68\n      swap1\n      tag_35\n      jump\t// in\n    tag_68:\n      swap1\n      0x00\n      mstore\n      keccak256(0x00, 0x20)\n      swap1\n      0x1f\n      add\n      0x20\n      swap1\n      div\n      dup2\n      add\n      swap3\n      dup3\n      tag_70\n      jumpi\n      0x00\n      dup6\n      sstore\n      jump(tag_69)\n    tag_70:\n      dup3\n      0x1f\n      lt\n      tag_71\n      jumpi\n      dup1\n      mload\n      not(0xff)\n      and\n      dup4\n      dup1\n      add\n      or\n      dup6\n      sstore\n      jump(tag_69)\n    tag_71:\n      dup3\n      dup1\n      add\n      0x01\n      add\n      dup6\n      sstore\n      dup3\n      iszero\n      tag_69\n      jumpi\n      swap2\n      dup3\n      add\n    tag_72:\n      dup3\n      dup2\n      gt\n      iszero\n      tag_73\n      jumpi\n      dup3\n      mload\n      dup3\n      sstore\n      swap2\n      0x20\n      add\n      swap2\n      swap1\n      0x01\n      add\n      swap1\n      jump(tag_72)\n    tag_73:\n    tag_69:\n      pop\n      swap1\n      pop\n      tag_74\n      swap2\n      swap1\n      tag_75\n      jump\t// in\n    tag_74:\n      pop\n      swap1\n      jump\t// out\n    tag_56:\n      dup3\n      dup1\n      sload\n      tag_76\n      swap1\n      tag_35\n      jump\t// in\n    tag_76:\n      swap1\n      0x00\n      mstore\n      keccak256(0x00, 0x20)\n      swap1\n      0x1f\n      add\n      0x20\n      swap1\n      div\n      dup2\n      add\n      swap3\n      dup3\n      tag_78\n      jumpi\n      0x00\n      dup6\n      sstore\n      jump(tag_77)\n    tag_78:\n      dup3\n      0x1f\n      lt\n      tag_79\n      jumpi\n      dup1\n      calldataload\n      not(0xff)\n      and\n      dup4\n      dup1\n      add\n      or\n      dup6\n      sstore\n      jump(tag_77)\n    tag_79:\n      dup3\n      dup1\n      add\n      0x01\n      add\n      dup6\n      sstore\n      dup3\n      iszero\n      tag_77\n      jumpi\n      swap2\n      dup3\n      add\n    tag_80:\n      dup3\n      dup2\n      gt\n      iszero\n      tag_81\n      jumpi\n      dup3\n      calldataload\n      dup3\n      sstore\n      swap2\n      0x20\n      add\n      swap2\n      swap1\n      0x01\n      add\n      swap1\n      jump(tag_80)\n    tag_81:\n    tag_77:\n      pop\n      swap1\n      pop\n      tag_82\n      swap2\n      swap1\n      tag_75\n      jump\t// in\n    tag_82:\n      pop\n      swap1\n      jump\t// out\n    tag_75:\n    tag_83:\n      dup1\n      dup3\n      gt\n      iszero\n      tag_84\n      jumpi\n      0x00\n      dup2\n      0x00\n      swap1\n      sstore\n      pop\n      0x01\n      add\n      jump(tag_83)\n    tag_84:\n      pop\n      swap1\n      jump\t// out\n        /* \"#utility.yul\":21:574   */\n    tag_86:\n        /* \"#utility.yul\":79:87   */\n      0x00\n        /* \"#utility.yul\":89:95   */\n      dup1\n        /* \"#utility.yul\":139:142   */\n      dup4\n        /* \"#utility.yul\":132:136   */\n      0x1f\n        /* \"#utility.yul\":124:130   */\n      dup5\n        /* \"#utility.yul\":120:137   */\n      add\n        /* \"#utility.yul\":116:143   */\n      slt\n        /* \"#utility.yul\":106:228   */\n      tag_88\n      jumpi\n        /* \"#utility.yul\":147:226   */\n      tag_89\n      tag_90\n      jump\t// in\n    tag_89:\n        /* \"#utility.yul\":106:228   */\n    tag_88:\n        /* \"#utility.yul\":260:266   */\n      dup3\n        /* \"#utility.yul\":247:267   */\n      calldataload\n        /* \"#utility.yul\":237:267   */\n      swap1\n      pop\n        /* \"#utility.yul\":290:308   */\n      0xffffffffffffffff\n        /* \"#utility.yul\":282:288   */\n      dup2\n        /* \"#utility.yul\":279:309   */\n      gt\n        /* \"#utility.yul\":276:393   */\n      iszero\n      tag_91\n      jumpi\n        /* \"#utility.yul\":312:391   */\n      tag_92\n      tag_93\n      jump\t// in\n    tag_92:\n        /* \"#utility.yul\":276:393   */\n    tag_91:\n        /* \"#utility.yul\":426:430   */\n      0x20\n        /* \"#utility.yul\":418:424   */\n      dup4\n        /* \"#utility.yul\":414:431   */\n      add\n        /* \"#utility.yul\":402:431   */\n      swap2\n      pop\n        /* \"#utility.yul\":480:483   */\n      dup4\n        /* \"#utility.yul\":472:476   */\n      0x01\n        /* \"#utility.yul\":464:470   */\n      dup3\n        /* \"#utility.yul\":460:477   */\n      mul\n        /* \"#utility.yul\":450:458   */\n      dup4\n        /* \"#utility.yul\":446:478   */\n      add\n        /* \"#utility.yul\":443:484   */\n      gt\n        /* \"#utility.yul\":440:568   */\n      iszero\n      tag_94\n      jumpi\n        /* \"#utility.yul\":487:566   */\n      tag_95\n      tag_96\n      jump\t// in\n    tag_95:\n        /* \"#utility.yul\":440:568   */\n    tag_94:\n        /* \"#utility.yul\":21:574   */\n      swap3\n      pop\n      swap3\n      swap1\n      pop\n      jump\t// out\n        /* \"#utility.yul\":580:719   */\n    tag_97:\n        /* \"#utility.yul\":626:631   */\n      0x00\n        /* \"#utility.yul\":664:670   */\n      dup2\n        /* \"#utility.yul\":651:671   */\n      calldataload\n        /* \"#utility.yul\":642:671   */\n      swap1\n      pop\n        /* \"#utility.yul\":680:713   */\n      tag_99\n        /* \"#utility.yul\":707:712   */\n      dup2\n        /* \"#utility.yul\":680:713   */\n      tag_100\n      jump\t// in\n    tag_99:\n        /* \"#utility.yul\":580:719   */\n      swap3\n      swap2\n      pop\n      pop\n      jump\t// out\n        /* \"#utility.yul\":725:1254   */\n    tag_16:\n        /* \"#utility.yul\":796:802   */\n      0x00\n        /* \"#utility.yul\":804:810   */\n      dup1\n        /* \"#utility.yul\":853:855   */\n      0x20\n        /* \"#utility.yul\":841:850   */\n      dup4\n        /* \"#utility.yul\":832:839   */\n      dup6\n        /* \"#utility.yul\":828:851   */\n      sub\n        /* \"#utility.yul\":824:856   */\n      slt\n        /* \"#utility.yul\":821:940   */\n      iszero\n      tag_102\n      jumpi\n        /* \"#utility.yul\":859:938   */\n      tag_103\n      tag_104\n      jump\t// in\n    tag_103:\n        /* \"#utility.yul\":821:940   */\n    tag_102:\n        /* \"#utility.yul\":1007:1008   */\n      0x00\n        /* \"#utility.yul\":996:1005   */\n      dup4\n        /* \"#utility.yul\":992:1009   */\n      add\n        /* \"#utility.yul\":979:1010   */\n      calldataload\n        /* \"#utility.yul\":1037:1055   */\n      0xffffffffffffffff\n        /* \"#utility.yul\":1029:1035   */\n      dup2\n        /* \"#utility.yul\":1026:1056   */\n      gt\n        /* \"#utility.yul\":1023:1140   */\n      iszero\n      tag_105\n      jumpi\n        /* \"#utility.yul\":1059:1138   */\n      tag_106\n      tag_107\n      jump\t// in\n    tag_106:\n        /* \"#utility.yul\":1023:1140   */\n    tag_105:\n        /* \"#utility.yul\":1172:1237   */\n      tag_108\n        /* \"#utility.yul\":1229:1236   */\n      dup6\n        /* \"#utility.yul\":1220:1226   */\n      dup3\n        /* \"#utility.yul\":1209:1218   */\n      dup7\n        /* \"#utility.yul\":1205:1227   */\n      add\n        /* \"#utility.yul\":1172:1237   */\n      tag_86\n      jump\t// in\n    tag_108:\n        /* \"#utility.yul\":1154:1237   */\n      swap3\n      pop\n      swap3\n      pop\n        /* \"#utility.yul\":950:1247   */\n      pop\n        /* \"#utility.yul\":725:1254   */\n      swap3\n      pop\n      swap3\n      swap1\n      pop\n      jump\t// out\n        /* \"#utility.yul\":1260:1589   */\n    tag_10:\n        /* \"#utility.yul\":1319:1325   */\n      0x00\n        /* \"#utility.yul\":1368:1370   */\n      0x20\n        /* \"#utility.yul\":1356:1365   */\n      dup3\n        /* \"#utility.yul\":1347:1354   */\n      dup5\n        /* \"#utility.yul\":1343:1366   */\n      sub\n        /* \"#utility.yul\":1339:1371   */\n      slt\n        /* \"#utility.yul\":1336:1455   */\n      iszero\n      tag_110\n      jumpi\n        /* \"#utility.yul\":1374:1453   */\n      tag_111\n      tag_104\n      jump\t// in\n    tag_111:\n        /* \"#utility.yul\":1336:1455   */\n    tag_110:\n        /* \"#utility.yul\":1494:1495   */\n      0x00\n        /* \"#utility.yul\":1519:1572   */\n      tag_112\n        /* \"#utility.yul\":1564:1571   */\n      dup5\n        /* \"#utility.yul\":1555:1561   */\n      dup3\n        /* \"#utility.yul\":1544:1553   */\n      dup6\n        /* \"#utility.yul\":1540:1562   */\n      add\n        /* \"#utility.yul\":1519:1572   */\n      tag_97\n      jump\t// in\n    tag_112:\n        /* \"#utility.yul\":1509:1572   */\n      swap2\n      pop\n        /* \"#utility.yul\":1465:1582   */\n      pop\n        /* \"#utility.yul\":1260:1589   */\n      swap3\n      swap2\n      pop\n      pop\n      jump\t// out\n        /* \"#utility.yul\":1595:2269   */\n    tag_24:\n        /* \"#utility.yul\":1675:1681   */\n      0x00\n        /* \"#utility.yul\":1683:1689   */\n      dup1\n        /* \"#utility.yul\":1691:1697   */\n      0x00\n        /* \"#utility.yul\":1740:1742   */\n      0x40\n        /* \"#utility.yul\":1728:1737   */\n      dup5\n        /* \"#utility.yul\":1719:1726   */\n      dup7\n        /* \"#utility.yul\":1715:1738   */\n      sub\n        /* \"#utility.yul\":1711:1743   */\n      slt\n        /* \"#utility.yul\":1708:1827   */\n      iszero\n      tag_114\n      jumpi\n        /* \"#utility.yul\":1746:1825   */\n      tag_115\n      tag_104\n      jump\t// in\n    tag_115:\n        /* \"#utility.yul\":1708:1827   */\n    tag_114:\n        /* \"#utility.yul\":1866:1867   */\n      0x00\n        /* \"#utility.yul\":1891:1944   */\n      tag_116\n        /* \"#utility.yul\":1936:1943   */\n      dup7\n        /* \"#utility.yul\":1927:1933   */\n      dup3\n        /* \"#utility.yul\":1916:1925   */\n      dup8\n        /* \"#utility.yul\":1912:1934   */\n      add\n        /* \"#utility.yul\":1891:1944   */\n      tag_97\n      jump\t// in\n    tag_116:\n        /* \"#utility.yul\":1881:1944   */\n      swap4\n      pop\n        /* \"#utility.yul\":1837:1954   */\n      pop\n        /* \"#utility.yul\":2021:2023   */\n      0x20\n        /* \"#utility.yul\":2010:2019   */\n      dup5\n        /* \"#utility.yul\":2006:2024   */\n      add\n        /* \"#utility.yul\":1993:2025   */\n      calldataload\n        /* \"#utility.yul\":2052:2070   */\n      0xffffffffffffffff\n        /* \"#utility.yul\":2044:2050   */\n      dup2\n        /* \"#utility.yul\":2041:2071   */\n      gt\n        /* \"#utility.yul\":2038:2155   */\n      iszero\n      tag_117\n      jumpi\n        /* \"#utility.yul\":2074:2153   */\n      tag_118\n      tag_107\n      jump\t// in\n    tag_118:\n        /* \"#utility.yul\":2038:2155   */\n    tag_117:\n        /* \"#utility.yul\":2187:2252   */\n      tag_119\n        /* \"#utility.yul\":2244:2251   */\n      dup7\n        /* \"#utility.yul\":2235:2241   */\n      dup3\n        /* \"#utility.yul\":2224:2233   */\n      dup8\n        /* \"#utility.yul\":2220:2242   */\n      add\n        /* \"#utility.yul\":2187:2252   */\n      tag_86\n      jump\t// in\n    tag_119:\n        /* \"#utility.yul\":2169:2252   */\n      swap3\n      pop\n      swap3\n      pop\n        /* \"#utility.yul\":1964:2262   */\n      pop\n        /* \"#utility.yul\":1595:2269   */\n      swap3\n      pop\n      swap3\n      pop\n      swap3\n      jump\t// out\n        /* \"#utility.yul\":2275:2384   */\n    tag_120:\n        /* \"#utility.yul\":2356:2377   */\n      tag_122\n        /* \"#utility.yul\":2371:2376   */\n      dup2\n        /* \"#utility.yul\":2356:2377   */\n      tag_123\n      jump\t// in\n    tag_122:\n        /* \"#utility.yul\":2351:2354   */\n      dup3\n        /* \"#utility.yul\":2344:2378   */\n      mstore\n        /* \"#utility.yul\":2275:2384   */\n      pop\n      pop\n      jump\t// out\n        /* \"#utility.yul\":2390:2754   */\n    tag_124:\n        /* \"#utility.yul\":2478:2481   */\n      0x00\n        /* \"#utility.yul\":2506:2545   */\n      tag_126\n        /* \"#utility.yul\":2539:2544   */\n      dup3\n        /* \"#utility.yul\":2506:2545   */\n      tag_127\n      jump\t// in\n    tag_126:\n        /* \"#utility.yul\":2561:2632   */\n      tag_128\n        /* \"#utility.yul\":2625:2631   */\n      dup2\n        /* \"#utility.yul\":2620:2623   */\n      dup6\n        /* \"#utility.yul\":2561:2632   */\n      tag_129\n      jump\t// in\n    tag_128:\n        /* \"#utility.yul\":2554:2632   */\n      swap4\n      pop\n        /* \"#utility.yul\":2641:2693   */\n      tag_130\n        /* \"#utility.yul\":2686:2692   */\n      dup2\n        /* \"#utility.yul\":2681:2684   */\n      dup6\n        /* \"#utility.yul\":2674:2678   */\n      0x20\n        /* \"#utility.yul\":2667:2672   */\n      dup7\n        /* \"#utility.yul\":2663:2679   */\n      add\n        /* \"#utility.yul\":2641:2693   */\n      tag_131\n      jump\t// in\n    tag_130:\n        /* \"#utility.yul\":2718:2747   */\n      tag_132\n        /* \"#utility.yul\":2740:2746   */\n      dup2\n        /* \"#utility.yul\":2718:2747   */\n      tag_133\n      jump\t// in\n    tag_132:\n        /* \"#utility.yul\":2713:2716   */\n      dup5\n        /* \"#utility.yul\":2709:2748   */\n      add\n        /* \"#utility.yul\":2702:2748   */\n      swap2\n      pop\n        /* \"#utility.yul\":2482:2754   */\n      pop\n        /* \"#utility.yul\":2390:2754   */\n      swap3\n      swap2\n      pop\n      pop\n      jump\t// out\n        /* \"#utility.yul\":2760:3171   */\n    tag_13:\n        /* \"#utility.yul\":2895:2899   */\n      0x00\n        /* \"#utility.yul\":2933:2935   */\n      0x40\n        /* \"#utility.yul\":2922:2931   */\n      dup3\n        /* \"#utility.yul\":2918:2936   */\n      add\n        /* \"#utility.yul\":2910:2936   */\n      swap1\n      pop\n        /* \"#utility.yul\":2982:2991   */\n      dup2\n        /* \"#utility.yul\":2976:2980   */\n      dup2\n        /* \"#utility.yul\":2972:2992   */\n      sub\n        /* \"#utility.yul\":2968:2969   */\n      0x00\n        /* \"#utility.yul\":2957:2966   */\n      dup4\n        /* \"#utility.yul\":2953:2970   */\n      add\n        /* \"#utility.yul\":2946:2993   */\n      mstore\n        /* \"#utility.yul\":3010:3088   */\n      tag_135\n        /* \"#utility.yul\":3083:3087   */\n      dup2\n        /* \"#utility.yul\":3074:3080   */\n      dup6\n        /* \"#utility.yul\":3010:3088   */\n      tag_124\n      jump\t// in\n    tag_135:\n        /* \"#utility.yul\":3002:3088   */\n      swap1\n      pop\n        /* \"#utility.yul\":3098:3164   */\n      tag_136\n        /* \"#utility.yul\":3160:3162   */\n      0x20\n        /* \"#utility.yul\":3149:3158   */\n      dup4\n        /* \"#utility.yul\":3145:3163   */\n      add\n        /* \"#utility.yul\":3136:3142   */\n      dup5\n        /* \"#utility.yul\":3098:3164   */\n      tag_120\n      jump\t// in\n    tag_136:\n        /* \"#utility.yul\":2760:3171   */\n      swap4\n      swap3\n      pop\n      pop\n      pop\n      jump\t// out\n        /* \"#utility.yul\":3258:3357   */\n    tag_127:\n        /* \"#utility.yul\":3310:3316   */\n      0x00\n        /* \"#utility.yul\":3344:3349   */\n      dup2\n        /* \"#utility.yul\":3338:3350   */\n      mload\n        /* \"#utility.yul\":3328:3350   */\n      swap1\n      pop\n        /* \"#utility.yul\":3258:3357   */\n      swap2\n      swap1\n      pop\n      jump\t// out\n        /* \"#utility.yul\":3363:3532   */\n    tag_129:\n        /* \"#utility.yul\":3447:3458   */\n      0x00\n        /* \"#utility.yul\":3481:3487   */\n      dup3\n        /* \"#utility.yul\":3476:3479   */\n      dup3\n        /* \"#utility.yul\":3469:3488   */\n      mstore\n        /* \"#utility.yul\":3521:3525   */\n      0x20\n        /* \"#utility.yul\":3516:3519   */\n      dup3\n        /* \"#utility.yul\":3512:3526   */\n      add\n        /* \"#utility.yul\":3497:3526   */\n      swap1\n      pop\n        /* \"#utility.yul\":3363:3532   */\n      swap3\n      swap2\n      pop\n      pop\n      jump\t// out\n        /* \"#utility.yul\":3538:3628   */\n    tag_123:\n        /* \"#utility.yul\":3572:3579   */\n      0x00\n        /* \"#utility.yul\":3615:3620   */\n      dup2\n        /* \"#utility.yul\":3608:3621   */\n      iszero\n        /* \"#utility.yul\":3601:3622   */\n      iszero\n        /* \"#utility.yul\":3590:3622   */\n      swap1\n      pop\n        /* \"#utility.yul\":3538:3628   */\n      swap2\n      swap1\n      pop\n      jump\t// out\n        /* \"#utility.yul\":3634:3711   */\n    tag_142:\n        /* \"#utility.yul\":3671:3678   */\n      0x00\n        /* \"#utility.yul\":3700:3705   */\n      dup2\n        /* \"#utility.yul\":3689:3705   */\n      swap1\n      pop\n        /* \"#utility.yul\":3634:3711   */\n      swap2\n      swap1\n      pop\n      jump\t// out\n        /* \"#utility.yul\":3717:4024   */\n    tag_131:\n        /* \"#utility.yul\":3785:3786   */\n      0x00\n        /* \"#utility.yul\":3795:3908   */\n    tag_145:\n        /* \"#utility.yul\":3809:3815   */\n      dup4\n        /* \"#utility.yul\":3806:3807   */\n      dup2\n        /* \"#utility.yul\":3803:3816   */\n      lt\n        /* \"#utility.yul\":3795:3908   */\n      iszero\n      tag_147\n      jumpi\n        /* \"#utility.yul\":3894:3895   */\n      dup1\n        /* \"#utility.yul\":3889:3892   */\n      dup3\n        /* \"#utility.yul\":3885:3896   */\n      add\n        /* \"#utility.yul\":3879:3897   */\n      mload\n        /* \"#utility.yul\":3875:3876   */\n      dup2\n        /* \"#utility.yul\":3870:3873   */\n      dup5\n        /* \"#utility.yul\":3866:3877   */\n      add\n        /* \"#utility.yul\":3859:3898   */\n      mstore\n        /* \"#utility.yul\":3831:3833   */\n      0x20\n        /* \"#utility.yul\":3828:3829   */\n      dup2\n        /* \"#utility.yul\":3824:3834   */\n      add\n        /* \"#utility.yul\":3819:3834   */\n      swap1\n      pop\n        /* \"#utility.yul\":3795:3908   */\n      jump(tag_145)\n    tag_147:\n        /* \"#utility.yul\":3926:3932   */\n      dup4\n        /* \"#utility.yul\":3923:3924   */\n      dup2\n        /* \"#utility.yul\":3920:3933   */\n      gt\n        /* \"#utility.yul\":3917:4018   */\n      iszero\n      tag_148\n      jumpi\n        /* \"#utility.yul\":4006:4007   */\n      0x00\n        /* \"#utility.yul\":3997:4003   */\n      dup5\n        /* \"#utility.yul\":3992:3995   */\n      dup5\n        /* \"#utility.yul\":3988:4004   */\n      add\n        /* \"#utility.yul\":3981:4008   */\n      mstore\n        /* \"#utility.yul\":3917:4018   */\n    tag_148:\n        /* \"#utility.yul\":3766:4024   */\n      pop\n        /* \"#utility.yul\":3717:4024   */\n      pop\n      pop\n      pop\n      jump\t// out\n        /* \"#utility.yul\":4030:4350   */\n    tag_35:\n        /* \"#utility.yul\":4074:4080   */\n      0x00\n        /* \"#utility.yul\":4111:4112   */\n      0x02\n        /* \"#utility.yul\":4105:4109   */\n      dup3\n        /* \"#utility.yul\":4101:4113   */\n      div\n        /* \"#utility.yul\":4091:4113   */\n      swap1\n      pop\n        /* \"#utility.yul\":4158:4159   */\n      0x01\n        /* \"#utility.yul\":4152:4156   */\n      dup3\n        /* \"#utility.yul\":4148:4160   */\n      and\n        /* \"#utility.yul\":4179:4197   */\n      dup1\n        /* \"#utility.yul\":4169:4250   */\n      tag_150\n      jumpi\n        /* \"#utility.yul\":4235:4239   */\n      0x7f\n        /* \"#utility.yul\":4227:4233   */\n      dup3\n        /* \"#utility.yul\":4223:4240   */\n      and\n        /* \"#utility.yul\":4213:4240   */\n      swap2\n      pop\n        /* \"#utility.yul\":4169:4250   */\n    tag_150:\n        /* \"#utility.yul\":4297:4299   */\n      0x20\n        /* \"#utility.yul\":4289:4295   */\n      dup3\n        /* \"#utility.yul\":4286:4300   */\n      lt\n        /* \"#utility.yul\":4266:4284   */\n      dup2\n        /* \"#utility.yul\":4263:4301   */\n      eq\n        /* \"#utility.yul\":4260:4344   */\n      iszero\n      tag_151\n      jumpi\n        /* \"#utility.yul\":4316:4334   */\n      tag_152\n      tag_153\n      jump\t// in\n    tag_152:\n        /* \"#utility.yul\":4260:4344   */\n    tag_151:\n        /* \"#utility.yul\":4081:4350   */\n      pop\n        /* \"#utility.yul\":4030:4350   */\n      swap2\n      swap1\n      pop\n      jump\t// out\n        /* \"#utility.yul\":4356:4536   */\n    tag_153:\n        /* \"#utility.yul\":4404:4481   */\n      0x4e487b7100000000000000000000000000000000000000000000000000000000\n        /* \"#utility.yul\":4401:4402   */\n      0x00\n        /* \"#utility.yul\":4394:4482   */\n      mstore\n        /* \"#utility.yul\":4501:4505   */\n      0x22\n        /* \"#utility.yul\":4498:4499   */\n      0x04\n        /* \"#utility.yul\":4491:4506   */\n      mstore\n        /* \"#utility.yul\":4525:4529   */\n      0x24\n        /* \"#utility.yul\":4522:4523   */\n      0x00\n        /* \"#utility.yul\":4515:4530   */\n      revert\n        /* \"#utility.yul\":4542:4722   */\n    tag_32:\n        /* \"#utility.yul\":4590:4667   */\n      0x4e487b7100000000000000000000000000000000000000000000000000000000\n        /* \"#utility.yul\":4587:4588   */\n      0x00\n        /* \"#utility.yul\":4580:4668   */\n      mstore\n        /* \"#utility.yul\":4687:4691   */\n      0x32\n        /* \"#utility.yul\":4684:4685   */\n      0x04\n        /* \"#utility.yul\":4677:4692   */\n      mstore\n        /* \"#utility.yul\":4711:4715   */\n      0x24\n        /* \"#utility.yul\":4708:4709   */\n      0x00\n        /* \"#utility.yul\":4701:4716   */\n      revert\n        /* \"#utility.yul\":4728:4845   */\n    tag_93:\n        /* \"#utility.yul\":4837:4838   */\n      0x00\n        /* \"#utility.yul\":4834:4835   */\n      dup1\n        /* \"#utility.yul\":4827:4839   */\n      revert\n        /* \"#utility.yul\":4851:4968   */\n    tag_90:\n        /* \"#utility.yul\":4960:4961   */\n      0x00\n        /* \"#utility.yul\":4957:4958   */\n      dup1\n        /* \"#utility.yul\":4950:4962   */\n      revert\n        /* \"#utility.yul\":4974:5091   */\n    tag_96:\n        /* \"#utility.yul\":5083:5084   */\n      0x00\n        /* \"#utility.yul\":5080:5081   */\n      dup1\n        /* \"#utility.yul\":5073:5085   */\n      revert\n        /* \"#utility.yul\":5097:5214   */\n    tag_107:\n        /* \"#utility.yul\":5206:5207   */\n      0x00\n        /* \"#utility.yul\":5203:5204   */\n      dup1\n        /* \"#utility.yul\":5196:5208   */\n      revert\n        /* \"#utility.yul\":5220:5337   */\n    tag_104:\n        /* \"#utility.yul\":5329:5330   */\n      0x00\n        /* \"#utility.yul\":5326:5327   */\n      dup1\n        /* \"#utility.yul\":5319:5331   */\n      revert\n        /* \"#utility.yul\":5343:5445   */\n    tag_133:\n        /* \"#utility.yul\":5384:5390   */\n      0x00\n        /* \"#utility.yul\":5435:5437   */\n      0x1f\n        /* \"#utility.yul\":5431:5438   */\n      not\n        /* \"#utility.yul\":5426:5428   */\n      0x1f\n        /* \"#utility.yul\":5419:5424   */\n      dup4\n        /* \"#utility.yul\":5415:5429   */\n      add\n        /* \"#utility.yul\":5411:5439   */\n      and\n        /* \"#utility.yul\":5401:5439   */\n      swap1\n      pop\n        /* \"#utility.yul\":5343:5445   */\n      swap2\n      swap1\n      pop\n      jump\t// out\n        /* \"#utility.yul\":5451:5573   */\n    tag_100:\n        /* \"#utility.yul\":5524:5548   */\n      tag_163\n        /* \"#utility.yul\":5542:5547   */\n      dup2\n        /* \"#utility.yul\":5524:5548   */\n      tag_142\n      jump\t// in\n    tag_163:\n        /* \"#utility.yul\":5517:5522   */\n      dup2\n        /* \"#utility.yul\":5514:5549   */\n      eq\n        /* \"#utility.yul\":5504:5567   */\n      tag_164\n      jumpi\n        /* \"#utility.yul\":5563:5564   */\n      0x00\n        /* \"#utility.yul\":5560:5561   */\n      dup1\n        /* \"#utility.yul\":5553:5565   */\n      revert\n        /* \"#utility.yul\":5504:5567   */\n    tag_164:\n        /* \"#utility.yul\":5451:5573   */\n      pop\n      jump\t// out\n\n    auxdata: 0xa2646970667358221220f6ac7013f38633717cd2e5156c047dcb5d1984b6bd309f69a03a2f6cf5e4c8a364736f6c63430008070033\n}\n",
				"bytecode": {
					"linkReferences": {},
					"object": "608060405234801561001057600080fd5b506108b3806100206000396000f3fe608060405234801561001057600080fd5b50600436106100575760003560e01c80639507d39a1461005c578063b6a46b3b1461008d578063bc8bc2b4146100a9578063cd111614146100da578063d7d91a19146100f6575b600080fd5b61007660048036038101906100719190610642565b610112565b604051610084929190610717565b60405180910390f35b6100a760048036038101906100a291906105f5565b6101e7565b005b6100c360048036038101906100be9190610642565b6102b1565b6040516100d1929190610717565b60405180910390f35b6100f460048036038101906100ef919061066f565b61037a565b005b610110600480360381019061010b9190610642565b6103ee565b005b60606000806000848154811061012b5761012a61080d565b5b90600052602060002090600202019050806000018160010160009054906101000a900460ff1681805461015d906107ac565b80601f0160208091040260200160405190810160405280929190818152602001828054610189906107ac565b80156101d65780601f106101ab576101008083540402835291602001916101d6565b820191906000526020600020905b8154815290600101906020018083116101b957829003601f168201915b505050505091509250925050915091565b6000604051806040016040528084848080601f016020809104026020016040519081016040528093929190818152602001838380828437600081840152601f19601f820116905080830192505050505050508152602001600015158152509080600181540180825580915050600190039060005260206000209060020201600090919091909150600082015181600001908051906020019061028a929190610461565b5060208201518160010160006101000a81548160ff02191690831515021790555050505050565b600081815481106102c157600080fd5b90600052602060002090600202016000915090508060000180546102e4906107ac565b80601f0160208091040260200160405190810160405280929190818152602001828054610310906107ac565b801561035d5780601f106103325761010080835404028352916020019161035d565b820191906000526020600020905b81548152906001019060200180831161034057829003601f168201915b5050505050908060010160009054906101000a900460ff16905082565b8181600085815481106103905761038f61080d565b5b906000526020600020906002020160000191906103ae9291906104e7565b5060008084815481106103c4576103c361080d565b5b9060005260206000209060020201905082828260000191906103e79291906104e7565b5050505050565b600081815481106104025761040161080d565b5b906000526020600020906002020160010160009054906101000a900460ff1615600082815481106104365761043561080d565b5b906000526020600020906002020160010160006101000a81548160ff02191690831515021790555050565b82805461046d906107ac565b90600052602060002090601f01602090048101928261048f57600085556104d6565b82601f106104a857805160ff19168380011785556104d6565b828001600101855582156104d6579182015b828111156104d55782518255916020019190600101906104ba565b5b5090506104e3919061056d565b5090565b8280546104f3906107ac565b90600052602060002090601f016020900481019282610515576000855561055c565b82601f1061052e57803560ff191683800117855561055c565b8280016001018555821561055c579182015b8281111561055b578235825591602001919060010190610540565b5b509050610569919061056d565b5090565b5b8082111561058657600081600090555060010161056e565b5090565b60008083601f8401126105a05761059f610841565b5b8235905067ffffffffffffffff8111156105bd576105bc61083c565b5b6020830191508360018202830111156105d9576105d8610846565b5b9250929050565b6000813590506105ef81610866565b92915050565b6000806020838503121561060c5761060b610850565b5b600083013567ffffffffffffffff81111561062a5761062961084b565b5b6106368582860161058a565b92509250509250929050565b60006020828403121561065857610657610850565b5b6000610666848285016105e0565b91505092915050565b60008060006040848603121561068857610687610850565b5b6000610696868287016105e0565b935050602084013567ffffffffffffffff8111156106b7576106b661084b565b5b6106c38682870161058a565b92509250509250925092565b6106d881610763565b82525050565b60006106e982610747565b6106f38185610752565b9350610703818560208601610779565b61070c81610855565b840191505092915050565b6000604082019050818103600083015261073181856106de565b905061074060208301846106cf565b9392505050565b600081519050919050565b600082825260208201905092915050565b60008115159050919050565b6000819050919050565b60005b8381101561079757808201518184015260208101905061077c565b838111156107a6576000848401525b50505050565b600060028204905060018216806107c457607f821691505b602082108114156107d8576107d76107de565b5b50919050565b7f4e487b7100000000000000000000000000000000000000000000000000000000600052602260045260246000fd5b7f4e487b7100000000000000000000000000000000000000000000000000000000600052603260045260246000fd5b600080fd5b600080fd5b600080fd5b600080fd5b600080fd5b6000601f19601f8301169050919050565b61086f8161076f565b811461087a57600080fd5b5056fea2646970667358221220f6ac7013f38633717cd2e5156c047dcb5d1984b6bd309f69a03a2f6cf5e4c8a364736f6c63430008070033",
					"opcodes": "PUSH1 0x80 PUSH1 0x40 MSTORE CALLVALUE DUP1 ISZERO PUSH2 0x10 JUMPI PUSH1 0x0 DUP1 REVERT JUMPDEST POP PUSH2 0x8B3 DUP1 PUSH2 0x20 PUSH1 0x0 CODECOPY PUSH1 0x0 RETURN INVALID PUSH1 0x80 PUSH1 0x40 MSTORE CALLVALUE DUP1 ISZERO PUSH2 0x10 JUMPI PUSH1 0x0 DUP1 REVERT JUMPDEST POP PUSH1 0x4 CALLDATASIZE LT PUSH2 0x57 JUMPI PUSH1 0x0 CALLDATALOAD PUSH1 0xE0 SHR DUP1 PUSH4 0x9507D39A EQ PUSH2 0x5C JUMPI DUP1 PUSH4 0xB6A46B3B EQ PUSH2 0x8D JUMPI DUP1 PUSH4 0xBC8BC2B4 EQ PUSH2 0xA9 JUMPI DUP1 PUSH4 0xCD111614 EQ PUSH2 0xDA JUMPI DUP1 PUSH4 0xD7D91A19 EQ PUSH2 0xF6 JUMPI JUMPDEST PUSH1 0x0 DUP1 REVERT JUMPDEST PUSH2 0x76 PUSH1 0x4 DUP1 CALLDATASIZE SUB DUP2 ADD SWAP1 PUSH2 0x71 SWAP2 SWAP1 PUSH2 0x642 JUMP JUMPDEST PUSH2 0x112 JUMP JUMPDEST PUSH1 0x40 MLOAD PUSH2 0x84 SWAP3 SWAP2 SWAP1 PUSH2 0x717 JUMP JUMPDEST PUSH1 0x40 MLOAD DUP1 SWAP2 SUB SWAP1 RETURN JUMPDEST PUSH2 0xA7 PUSH1 0x4 DUP1 CALLDATASIZE SUB DUP2 ADD SWAP1 PUSH2 0xA2 SWAP2 SWAP1 PUSH2 0x5F5 JUMP JUMPDEST PUSH2 0x1E7 JUMP JUMPDEST STOP JUMPDEST PUSH2 0xC3 PUSH1 0x4 DUP1 CALLDATASIZE SUB DUP2 ADD SWAP1 PUSH2 0xBE SWAP2 SWAP1 PUSH2 0x642 JUMP JUMPDEST PUSH2 0x2B1 JUMP JUMPDEST PUSH1 0x40 MLOAD PUSH2 0xD1 SWAP3 SWAP2 SWAP1 PUSH2 0x717 JUMP JUMPDEST PUSH1 0x40 MLOAD DUP1 SWAP2 SUB SWAP1 RETURN JUMPDEST PUSH2 0xF4 PUSH1 0x4 DUP1 CALLDATASIZE SUB DUP2 ADD SWAP1 PUSH2 0xEF SWAP2 SWAP1 PUSH2 0x66F JUMP JUMPDEST PUSH2 0x37A JUMP JUMPDEST STOP JUMPDEST PUSH2 0x110 PUSH1 0x4 DUP1 CALLDATASIZE SUB DUP2 ADD SWAP1 PUSH2 0x10B SWAP2 SWAP1 PUSH2 0x642 JUMP JUMPDEST PUSH2 0x3EE JUMP JUMPDEST STOP JUMPDEST PUSH1 0x60 PUSH1 0x0 DUP1 PUSH1 0x0 DUP5 DUP2 SLOAD DUP2 LT PUSH2 0x12B JUMPI PUSH2 0x12A PUSH2 0x80D JUMP JUMPDEST JUMPDEST SWAP1 PUSH1 0x0 MSTORE PUSH1 0x20 PUSH1 0x0 KECCAK256 SWAP1 PUSH1 0x2 MUL ADD SWAP1 POP DUP1 PUSH1 0x0 ADD DUP2 PUSH1 0x1 ADD PUSH1 0x0 SWAP1 SLOAD SWAP1 PUSH2 0x100 EXP SWAP1 DIV PUSH1 0xFF AND DUP2 DUP1 SLOAD PUSH2 0x15D SWAP1 PUSH2 0x7AC JUMP JUMPDEST DUP1 PUSH1 0x1F ADD PUSH1 0x20 DUP1 SWAP2 DIV MUL PUSH1 0x20 ADD PUSH1 0x40 MLOAD SWAP1 DUP2 ADD PUSH1 0x40 MSTORE DUP1 SWAP3 SWAP2 SWAP1 DUP2 DUP2 MSTORE PUSH1 0x20 ADD DUP3 DUP1 SLOAD PUSH2 0x189 SWAP1 PUSH2 0x7AC JUMP JUMPDEST DUP1 ISZERO PUSH2 0x1D6 JUMPI DUP1 PUSH1 0x1F LT PUSH2 0x1AB JUMPI PUSH2 0x100 DUP1 DUP4 SLOAD DIV MUL DUP4 MSTORE SWAP2 PUSH1 0x20 ADD SWAP2 PUSH2 0x1D6 JUMP JUMPDEST DUP3 ADD SWAP2 SWAP1 PUSH1 0x0 MSTORE PUSH1 0x20 PUSH1 0x0 KECCAK256 SWAP1 JUMPDEST DUP2 SLOAD DUP2 MSTORE SWAP1 PUSH1 0x1 ADD SWAP1 PUSH1 0x20 ADD DUP1 DUP4 GT PUSH2 0x1B9 JUMPI DUP3 SWAP1 SUB PUSH1 0x1F AND DUP3 ADD SWAP2 JUMPDEST POP POP POP POP POP SWAP2 POP SWAP3 POP SWAP3 POP POP SWAP2 POP SWAP2 JUMP JUMPDEST PUSH1 0x0 PUSH1 0x40 MLOAD DUP1 PUSH1 0x40 ADD PUSH1 0x40 MSTORE DUP1 DUP5 DUP5 DUP1 DUP1 PUSH1 0x1F ADD PUSH1 0x20 DUP1 SWAP2 DIV MUL PUSH1 0x20 ADD PUSH1 0x40 MLOAD SWAP1 DUP2 ADD PUSH1 0x40 MSTORE DUP1 SWAP4 SWAP3 SWAP2 SWAP1 DUP2 DUP2 MSTORE PUSH1 0x20 ADD DUP4 DUP4 DUP1 DUP3 DUP5 CALLDATACOPY PUSH1 0x0 DUP2 DUP5 ADD MSTORE PUSH1 0x1F NOT PUSH1 0x1F DUP3 ADD AND SWAP1 POP DUP1 DUP4 ADD SWAP3 POP POP POP POP POP POP POP DUP2 MSTORE PUSH1 0x20 ADD PUSH1 0x0 ISZERO ISZERO DUP2 MSTORE POP SWAP1 DUP1 PUSH1 0x1 DUP2 SLOAD ADD DUP1 DUP3 SSTORE DUP1 SWAP2 POP POP PUSH1 0x1 SWAP1 SUB SWAP1 PUSH1 0x0 MSTORE PUSH1 0x20 PUSH1 0x0 KECCAK256 SWAP1 PUSH1 0x2 MUL ADD PUSH1 0x0 SWAP1 SWAP2 SWAP1 SWAP2 SWAP1 SWAP2 POP PUSH1 0x0 DUP3 ADD MLOAD DUP2 PUSH1 0x0 ADD SWAP1 DUP1 MLOAD SWAP1 PUSH1 0x20 ADD SWAP1 PUSH2 0x28A SWAP3 SWAP2 SWAP1 PUSH2 0x461 JUMP JUMPDEST POP PUSH1 0x20 DUP3 ADD MLOAD DUP2 PUSH1 0x1 ADD PUSH1 0x0 PUSH2 0x100 EXP DUP2 SLOAD DUP2 PUSH1 0xFF MUL NOT AND SWAP1 DUP4 ISZERO ISZERO MUL OR SWAP1 SSTORE POP POP POP POP POP JUMP JUMPDEST PUSH1 0x0 DUP2 DUP2 SLOAD DUP2 LT PUSH2 0x2C1 JUMPI PUSH1 0x0 DUP1 REVERT JUMPDEST SWAP1 PUSH1 0x0 MSTORE PUSH1 0x20 PUSH1 0x0 KECCAK256 SWAP1 PUSH1 0x2 MUL ADD PUSH1 0x0 SWAP2 POP SWAP1 POP DUP1 PUSH1 0x0 ADD DUP1 SLOAD PUSH2 0x2E4 SWAP1 PUSH2 0x7AC JUMP JUMPDEST DUP1 PUSH1 0x1F ADD PUSH1 0x20 DUP1 SWAP2 DIV MUL PUSH1 0x20 ADD PUSH1 0x40 MLOAD SWAP1 DUP2 ADD PUSH1 0x40 MSTORE DUP1 SWAP3 SWAP2 SWAP1 DUP2 DUP2 MSTORE PUSH1 0x20 ADD DUP3 DUP1 SLOAD PUSH2 0x310 SWAP1 PUSH2 0x7AC JUMP JUMPDEST DUP1 ISZERO PUSH2 0x35D JUMPI DUP1 PUSH1 0x1F LT PUSH2 0x332 JUMPI PUSH2 0x100 DUP1 DUP4 SLOAD DIV MUL DUP4 MSTORE SWAP2 PUSH1 0x20 ADD SWAP2 PUSH2 0x35D JUMP JUMPDEST DUP3 ADD SWAP2 SWAP1 PUSH1 0x0 MSTORE PUSH1 0x20 PUSH1 0x0 KECCAK256 SWAP1 JUMPDEST DUP2 SLOAD DUP2 MSTORE SWAP1 PUSH1 0x1 ADD SWAP1 PUSH1 0x20 ADD DUP1 DUP4 GT PUSH2 0x340 JUMPI DUP3 SWAP1 SUB PUSH1 0x1F AND DUP3 ADD SWAP2 JUMPDEST POP POP POP POP POP SWAP1 DUP1 PUSH1 0x1 ADD PUSH1 0x0 SWAP1 SLOAD SWAP1 PUSH2 0x100 EXP SWAP1 DIV PUSH1 0xFF AND SWAP1 POP DUP3 JUMP JUMPDEST DUP2 DUP2 PUSH1 0x0 DUP6 DUP2 SLOAD DUP2 LT PUSH2 0x390 JUMPI PUSH2 0x38F PUSH2 0x80D JUMP JUMPDEST JUMPDEST SWAP1 PUSH1 0x0 MSTORE PUSH1 0x20 PUSH1 0x0 KECCAK256 SWAP1 PUSH1 0x2 MUL ADD PUSH1 0x0 ADD SWAP2 SWAP1 PUSH2 0x3AE SWAP3 SWAP2 SWAP1 PUSH2 0x4E7 JUMP JUMPDEST POP PUSH1 0x0 DUP1 DUP5 DUP2 SLOAD DUP2 LT PUSH2 0x3C4 JUMPI PUSH2 0x3C3 PUSH2 0x80D JUMP JUMPDEST JUMPDEST SWAP1 PUSH1 0x0 MSTORE PUSH1 0x20 PUSH1 0x0 KECCAK256 SWAP1 PUSH1 0x2 MUL ADD SWAP1 POP DUP3 DUP3 DUP3 PUSH1 0x0 ADD SWAP2 SWAP1 PUSH2 0x3E7 SWAP3 SWAP2 SWAP1 PUSH2 0x4E7 JUMP JUMPDEST POP POP POP POP POP JUMP JUMPDEST PUSH1 0x0 DUP2 DUP2 SLOAD DUP2 LT PUSH2 0x402 JUMPI PUSH2 0x401 PUSH2 0x80D JUMP JUMPDEST JUMPDEST SWAP1 PUSH1 0x0 MSTORE PUSH1 0x20 PUSH1 0x0 KECCAK256 SWAP1 PUSH1 0x2 MUL ADD PUSH1 0x1 ADD PUSH1 0x0 SWAP1 SLOAD SWAP1 PUSH2 0x100 EXP SWAP1 DIV PUSH1 0xFF AND ISZERO PUSH1 0x0 DUP3 DUP2 SLOAD DUP2 LT PUSH2 0x436 JUMPI PUSH2 0x435 PUSH2 0x80D JUMP JUMPDEST JUMPDEST SWAP1 PUSH1 0x0 MSTORE PUSH1 0x20 PUSH1 0x0 KECCAK256 SWAP1 PUSH1 0x2 MUL ADD PUSH1 0x1 ADD PUSH1 0x0 PUSH2 0x100 EXP DUP2 SLOAD DUP2 PUSH1 0xFF MUL NOT AND SWAP1 DUP4 ISZERO ISZERO MUL OR SWAP1 SSTORE POP POP JUMP JUMPDEST DUP3 DUP1 SLOAD PUSH2 0x46D SWAP1 PUSH2 0x7AC JUMP JUMPDEST SWAP1 PUSH1 0x0 MSTORE PUSH1 0x20 PUSH1 0x0 KECCAK256 SWAP1 PUSH1 0x1F ADD PUSH1 0x20 SWAP1 DIV DUP2 ADD SWAP3 DUP3 PUSH2 0x48F JUMPI PUSH1 0x0 DUP6 SSTORE PUSH2 0x4D6 JUMP JUMPDEST DUP3 PUSH1 0x1F LT PUSH2 0x4A8 JUMPI DUP1 MLOAD PUSH1 0xFF NOT AND DUP4 DUP1 ADD OR DUP6 SSTORE PUSH2 0x4D6 JUMP JUMPDEST DUP3 DUP1 ADD PUSH1 0x1 ADD DUP6 SSTORE DUP3 ISZERO PUSH2 0x4D6 JUMPI SWAP2 DUP3 ADD JUMPDEST DUP3 DUP2 GT ISZERO PUSH2 0x4D5 JUMPI DUP3 MLOAD DUP3 SSTORE SWAP2 PUSH1 0x20 ADD SWAP2 SWAP1 PUSH1 0x1 ADD SWAP1 PUSH2 0x4BA JUMP JUMPDEST JUMPDEST POP SWAP1 POP PUSH2 0x4E3 SWAP2 SWAP1 PUSH2 0x56D JUMP JUMPDEST POP SWAP1 JUMP JUMPDEST DUP3 DUP1 SLOAD PUSH2 0x4F3 SWAP1 PUSH2 0x7AC JUMP JUMPDEST SWAP1 PUSH1 0x0 MSTORE PUSH1 0x20 PUSH1 0x0 KECCAK256 SWAP1 PUSH1 0x1F ADD PUSH1 0x20 SWAP1 DIV DUP2 ADD SWAP3 DUP3 PUSH2 0x515 JUMPI PUSH1 0x0 DUP6 SSTORE PUSH2 0x55C JUMP JUMPDEST DUP3 PUSH1 0x1F LT PUSH2 0x52E JUMPI DUP1 CALLDATALOAD PUSH1 0xFF NOT AND DUP4 DUP1 ADD OR DUP6 SSTORE PUSH2 0x55C JUMP JUMPDEST DUP3 DUP1 ADD PUSH1 0x1 ADD DUP6 SSTORE DUP3 ISZERO PUSH2 0x55C JUMPI SWAP2 DUP3 ADD JUMPDEST DUP3 DUP2 GT ISZERO PUSH2 0x55B JUMPI DUP3 CALLDATALOAD DUP3 SSTORE SWAP2 PUSH1 0x20 ADD SWAP2 SWAP1 PUSH1 0x1 ADD SWAP1 PUSH2 0x540 JUMP JUMPDEST JUMPDEST POP SWAP1 POP PUSH2 0x569 SWAP2 SWAP1 PUSH2 0x56D JUMP JUMPDEST POP SWAP1 JUMP JUMPDEST JUMPDEST DUP1 DUP3 GT ISZERO PUSH2 0x586 JUMPI PUSH1 0x0 DUP2 PUSH1 0x0 SWAP1 SSTORE POP PUSH1 0x1 ADD PUSH2 0x56E JUMP JUMPDEST POP SWAP1 JUMP JUMPDEST PUSH1 0x0 DUP1 DUP4 PUSH1 0x1F DUP5 ADD SLT PUSH2 0x5A0 JUMPI PUSH2 0x59F PUSH2 0x841 JUMP JUMPDEST JUMPDEST DUP3 CALLDATALOAD SWAP1 POP PUSH8 0xFFFFFFFFFFFFFFFF DUP2 GT ISZERO PUSH2 0x5BD JUMPI PUSH2 0x5BC PUSH2 0x83C JUMP JUMPDEST JUMPDEST PUSH1 0x20 DUP4 ADD SWAP2 POP DUP4 PUSH1 0x1 DUP3 MUL DUP4 ADD GT ISZERO PUSH2 0x5D9 JUMPI PUSH2 0x5D8 PUSH2 0x846 JUMP JUMPDEST JUMPDEST SWAP3 POP SWAP3 SWAP1 POP JUMP JUMPDEST PUSH1 0x0 DUP2 CALLDATALOAD SWAP1 POP PUSH2 0x5EF DUP2 PUSH2 0x866 JUMP JUMPDEST SWAP3 SWAP2 POP POP JUMP JUMPDEST PUSH1 0x0 DUP1 PUSH1 0x20 DUP4 DUP6 SUB SLT ISZERO PUSH2 0x60C JUMPI PUSH2 0x60B PUSH2 0x850 JUMP JUMPDEST JUMPDEST PUSH1 0x0 DUP4 ADD CALLDATALOAD PUSH8 0xFFFFFFFFFFFFFFFF DUP2 GT ISZERO PUSH2 0x62A JUMPI PUSH2 0x629 PUSH2 0x84B JUMP JUMPDEST JUMPDEST PUSH2 0x636 DUP6 DUP3 DUP7 ADD PUSH2 0x58A JUMP JUMPDEST SWAP3 POP SWAP3 POP POP SWAP3 POP SWAP3 SWAP1 POP JUMP JUMPDEST PUSH1 0x0 PUSH1 0x20 DUP3 DUP5 SUB SLT ISZERO PUSH2 0x658 JUMPI PUSH2 0x657 PUSH2 0x850 JUMP JUMPDEST JUMPDEST PUSH1 0x0 PUSH2 0x666 DUP5 DUP3 DUP6 ADD PUSH2 0x5E0 JUMP JUMPDEST SWAP2 POP POP SWAP3 SWAP2 POP POP JUMP JUMPDEST PUSH1 0x0 DUP1 PUSH1 0x0 PUSH1 0x40 DUP5 DUP7 SUB SLT ISZERO PUSH2 0x688 JUMPI PUSH2 0x687 PUSH2 0x850 JUMP JUMPDEST JUMPDEST PUSH1 0x0 PUSH2 0x696 DUP7 DUP3 DUP8 ADD PUSH2 0x5E0 JUMP JUMPDEST SWAP4 POP POP PUSH1 0x20 DUP5 ADD CALLDATALOAD PUSH8 0xFFFFFFFFFFFFFFFF DUP2 GT ISZERO PUSH2 0x6B7 JUMPI PUSH2 0x6B6 PUSH2 0x84B JUMP JUMPDEST JUMPDEST PUSH2 0x6C3 DUP7 DUP3 DUP8 ADD PUSH2 0x58A JUMP JUMPDEST SWAP3 POP SWAP3 POP POP SWAP3 POP SWAP3 POP SWAP3 JUMP JUMPDEST PUSH2 0x6D8 DUP2 PUSH2 0x763 JUMP JUMPDEST DUP3 MSTORE POP POP JUMP JUMPDEST PUSH1 0x0 PUSH2 0x6E9 DUP3 PUSH2 0x747 JUMP JUMPDEST PUSH2 0x6F3 DUP2 DUP6 PUSH2 0x752 JUMP JUMPDEST SWAP4 POP PUSH2 0x703 DUP2 DUP6 PUSH1 0x20 DUP7 ADD PUSH2 0x779 JUMP JUMPDEST PUSH2 0x70C DUP2 PUSH2 0x855 JUMP JUMPDEST DUP5 ADD SWAP2 POP POP SWAP3 SWAP2 POP POP JUMP JUMPDEST PUSH1 0x0 PUSH1 0x40 DUP3 ADD SWAP1 POP DUP2 DUP2 SUB PUSH1 0x0 DUP4 ADD MSTORE PUSH2 0x731 DUP2 DUP6 PUSH2 0x6DE JUMP JUMPDEST SWAP1 POP PUSH2 0x740 PUSH1 0x20 DUP4 ADD DUP5 PUSH2 0x6CF JUMP JUMPDEST SWAP4 SWAP3 POP POP POP JUMP JUMPDEST PUSH1 0x0 DUP2 MLOAD SWAP1 POP SWAP2 SWAP1 POP JUMP JUMPDEST PUSH1 0x0 DUP3 DUP3 MSTORE PUSH1 0x20 DUP3 ADD SWAP1 POP SWAP3 SWAP2 POP POP JUMP JUMPDEST PUSH1 0x0 DUP2 ISZERO ISZERO SWAP1 POP SWAP2 SWAP1 POP JUMP JUMPDEST PUSH1 0x0 DUP2 SWAP1 POP SWAP2 SWAP1 POP JUMP JUMPDEST PUSH1 0x0 JUMPDEST DUP4 DUP2 LT ISZERO PUSH2 0x797 JUMPI DUP1 DUP3 ADD MLOAD DUP2 DUP5 ADD MSTORE PUSH1 0x20 DUP2 ADD SWAP1 POP PUSH2 0x77C JUMP JUMPDEST DUP4 DUP2 GT ISZERO PUSH2 0x7A6 JUMPI PUSH1 0x0 DUP5 DUP5 ADD MSTORE JUMPDEST POP POP POP POP JUMP JUMPDEST PUSH1 0x0 PUSH1 0x2 DUP3 DIV SWAP1 POP PUSH1 0x1 DUP3 AND DUP1 PUSH2 0x7C4 JUMPI PUSH1 0x7F DUP3 AND SWAP2 POP JUMPDEST PUSH1 0x20 DUP3 LT DUP2 EQ ISZERO PUSH2 0x7D8 JUMPI PUSH2 0x7D7 PUSH2 0x7DE JUMP JUMPDEST JUMPDEST POP SWAP2 SWAP1 POP JUMP JUMPDEST PUSH32 0x4E487B7100000000000000000000000000000000000000000000000000000000 PUSH1 0x0 MSTORE PUSH1 0x22 PUSH1 0x4 MSTORE PUSH1 0x24 PUSH1 0x0 REVERT JUMPDEST PUSH32 0x4E487B7100000000000000000000000000000000000000000000000000000000 PUSH1 0x0 MSTORE PUSH1 0x32 PUSH1 0x4 MSTORE PUSH1 0x24 PUSH1 0x0 REVERT JUMPDEST PUSH1 0x0 DUP1 REVERT JUMPDEST PUSH1 0x0 DUP1 REVERT JUMPDEST PUSH1 0x0 DUP1 REVERT JUMPDEST PUSH1 0x0 DUP1 REVERT JUMPDEST PUSH1 0x0 DUP1 REVERT JUMPDEST PUSH1 0x0 PUSH1 0x1F NOT PUSH1 0x1F DUP4 ADD AND SWAP1 POP SWAP2 SWAP1 POP JUMP JUMPDEST PUSH2 0x86F DUP2 PUSH2 0x76F JUMP JUMPDEST DUP2 EQ PUSH2 0x87A JUMPI PUSH1 0x0 DUP1 REVERT JUMPDEST POP JUMP INVALID LOG2 PUSH5 0x6970667358 0x22 SLT KECCAK256 0xF6 0xAC PUSH17 0x13F38633717CD2E5156C047DCB5D1984B6 0xBD ADDRESS SWAP16 PUSH10 0xA03A2F6CF5E4C8A36473 PUSH16 0x6C634300080700330000000000000000 "
				},
				"gasEstimates": {
					"creation": {
						"codeDepositCost": "445400",
						"executionCost": "480",
						"totalCost": "445880"
					},
					"external": {
						"create(string)": "infinite",
						"get(uint256)": "infinite",
						"todos(uint256)": "infinite",
						"toggleCcompleted(uint256)": "31272",
						"updateText(uint256,string)": "infinite"
					}
				},
				"methodIdentifiers": {
					"create(string)": "b6a46b3b",
					"get(uint256)": "9507d39a",
					"todos(uint256)": "bc8bc2b4",
					"toggleCcompleted(uint256)": "d7d91a19",
					"updateText(uint256,string)": "cd111614"
				}
			},
			"storageLayout": {
				"storage": [
					{
						"astId": 10,
						"contract": "hands-on-task/todo.sol:TodoList",
						"label": "todos",
						"offset": 0,
						"slot": "0",
						"type": "t_array(t_struct(Todo)6_storage)dyn_storage"
					}
				],
				"types": {
					"t_array(t_struct(Todo)6_storage)dyn_storage": {
						"base": "t_struct(Todo)6_storage",
						"encoding": "dynamic_array",
						"label": "struct TodoList.Todo[]",
						"numberOfBytes": "32"
					},
					"t_bool": {
						"encoding": "inplace",
						"label": "bool",
						"numberOfBytes": "1"
					},
					"t_string_storage": {
						"encoding": "bytes",
						"label": "string",
						"numberOfBytes": "32"
					},
					"t_struct(Todo)6_storage": {
						"encoding": "inplace",
						"label": "struct TodoList.Todo",
						"members": [
							{
								"astId": 3,
								"contract": "hands-on-task/todo.sol:TodoList",
								"label": "text",
								"offset": 0,
								"slot": "0",
								"type": "t_string_storage"
							},
							{
								"astId": 5,
								"contract": "hands-on-task/todo.sol:TodoList",
								"label": "completed",
								"offset": 0,
								"slot": "1",
								"type": "t_bool"
							}
						],
						"numberOfBytes": "64"
					}
				}
			},
			"userdoc": {
				"kind": "user",
				"methods": {},
				"version": 1
			}
		}
	}
}