{
	"data": {
		"bytecode": {
			"linkReferences": {
				"week2-notes.sol": {
					"Math": [
						{
							"length": 20,
							"start": 132
						}
					]
				}
			},
			"object": "608060405234801561001057600080fd5b50610248806100206000396000f3fe608060405234801561001057600080fd5b506004361061002b5760003560e01c8063834db42114610030575b600080fd5b61004a6004803603810190610045919061014a565b610060565b60405161005791906101a8565b60405180910390f35b600073__$7690a52f7fd352007ab738b97adf9d593b$__636d5433e684846040518363ffffffff1660e01b815260040161009b9291906101c3565b60206040518083038186803b1580156100b357600080fd5b505af41580156100c7573d6000803e3d6000fd5b505050506040513d601f19601f820116820180604052508101906100eb919061011d565b905092915050565b600081359050610102816101fb565b92915050565b600081519050610117816101fb565b92915050565b600060208284031215610133576101326101f6565b5b600061014184828501610108565b91505092915050565b60008060408385031215610161576101606101f6565b5b600061016f858286016100f3565b9250506020610180858286016100f3565b9150509250929050565b610193816101ec565b82525050565b6101a2816101ec565b82525050565b60006020820190506101bd600083018461018a565b92915050565b60006040820190506101d86000830185610199565b6101e56020830184610199565b9392505050565b6000819050919050565b600080fd5b610204816101ec565b811461020f57600080fd5b5056fea2646970667358221220c42034f453e1585bd863688319c690296f81896976c02fd2eced4673cba7f18d64736f6c63430008070033",
			"opcodes": "PUSH1 0x80 PUSH1 0x40 MSTORE CALLVALUE DUP1 ISZERO PUSH2 0x10 JUMPI PUSH1 0x0 DUP1 REVERT JUMPDEST POP PUSH2 0x248 DUP1 PUSH2 0x20 PUSH1 0x0 CODECOPY PUSH1 0x0 RETURN INVALID PUSH1 0x80 PUSH1 0x40 MSTORE CALLVALUE DUP1 ISZERO PUSH2 0x10 JUMPI PUSH1 0x0 DUP1 REVERT JUMPDEST POP PUSH1 0x4 CALLDATASIZE LT PUSH2 0x2B JUMPI PUSH1 0x0 CALLDATALOAD PUSH1 0xE0 SHR DUP1 PUSH4 0x834DB421 EQ PUSH2 0x30 JUMPI JUMPDEST PUSH1 0x0 DUP1 REVERT JUMPDEST PUSH2 0x4A PUSH1 0x4 DUP1 CALLDATASIZE SUB DUP2 ADD SWAP1 PUSH2 0x45 SWAP2 SWAP1 PUSH2 0x14A JUMP JUMPDEST PUSH2 0x60 JUMP JUMPDEST PUSH1 0x40 MLOAD PUSH2 0x57 SWAP2 SWAP1 PUSH2 0x1A8 JUMP JUMPDEST PUSH1 0x40 MLOAD DUP1 SWAP2 SUB SWAP1 RETURN JUMPDEST PUSH1 0x0 PUSH20 0x0 PUSH4 0x6D5433E6 DUP5 DUP5 PUSH1 0x40 MLOAD DUP4 PUSH4 0xFFFFFFFF AND PUSH1 0xE0 SHL DUP2 MSTORE PUSH1 0x4 ADD PUSH2 0x9B SWAP3 SWAP2 SWAP1 PUSH2 0x1C3 JUMP JUMPDEST PUSH1 0x20 PUSH1 0x40 MLOAD DUP1 DUP4 SUB DUP2 DUP7 DUP1 EXTCODESIZE ISZERO DUP1 ISZERO PUSH2 0xB3 JUMPI PUSH1 0x0 DUP1 REVERT JUMPDEST POP GAS DELEGATECALL ISZERO DUP1 ISZERO PUSH2 0xC7 JUMPI RETURNDATASIZE PUSH1 0x0 DUP1 RETURNDATACOPY RETURNDATASIZE PUSH1 0x0 REVERT JUMPDEST POP POP POP POP PUSH1 0x40 MLOAD RETURNDATASIZE PUSH1 0x1F NOT PUSH1 0x1F DUP3 ADD AND DUP3 ADD DUP1 PUSH1 0x40 MSTORE POP DUP2 ADD SWAP1 PUSH2 0xEB SWAP2 SWAP1 PUSH2 0x11D JUMP JUMPDEST SWAP1 POP SWAP3 SWAP2 POP POP JUMP JUMPDEST PUSH1 0x0 DUP2 CALLDATALOAD SWAP1 POP PUSH2 0x102 DUP2 PUSH2 0x1FB JUMP JUMPDEST SWAP3 SWAP2 POP POP JUMP JUMPDEST PUSH1 0x0 DUP2 MLOAD SWAP1 POP PUSH2 0x117 DUP2 PUSH2 0x1FB JUMP JUMPDEST SWAP3 SWAP2 POP POP JUMP JUMPDEST PUSH1 0x0 PUSH1 0x20 DUP3 DUP5 SUB SLT ISZERO PUSH2 0x133 JUMPI PUSH2 0x132 PUSH2 0x1F6 JUMP JUMPDEST JUMPDEST PUSH1 0x0 PUSH2 0x141 DUP5 DUP3 DUP6 ADD PUSH2 0x108 JUMP JUMPDEST SWAP2 POP POP SWAP3 SWAP2 POP POP JUMP JUMPDEST PUSH1 0x0 DUP1 PUSH1 0x40 DUP4 DUP6 SUB SLT ISZERO PUSH2 0x161 JUMPI PUSH2 0x160 PUSH2 0x1F6 JUMP JUMPDEST JUMPDEST PUSH1 0x0 PUSH2 0x16F DUP6 DUP3 DUP7 ADD PUSH2 0xF3 JUMP JUMPDEST SWAP3 POP POP PUSH1 0x20 PUSH2 0x180 DUP6 DUP3 DUP7 ADD PUSH2 0xF3 JUMP JUMPDEST SWAP2 POP POP SWAP3 POP SWAP3 SWAP1 POP JUMP JUMPDEST PUSH2 0x193 DUP2 PUSH2 0x1EC JUMP JUMPDEST DUP3 MSTORE POP POP JUMP JUMPDEST PUSH2 0x1A2 DUP2 PUSH2 0x1EC JUMP JUMPDEST DUP3 MSTORE POP POP JUMP JUMPDEST PUSH1 0x0 PUSH1 0x20 DUP3 ADD SWAP1 POP PUSH2 0x1BD PUSH1 0x0 DUP4 ADD DUP5 PUSH2 0x18A JUMP JUMPDEST SWAP3 SWAP2 POP POP JUMP JUMPDEST PUSH1 0x0 PUSH1 0x40 DUP3 ADD SWAP1 POP PUSH2 0x1D8 PUSH1 0x0 DUP4 ADD DUP6 PUSH2 0x199 JUMP JUMPDEST PUSH2 0x1E5 PUSH1 0x20 DUP4 ADD DUP5 PUSH2 0x199 JUMP JUMPDEST SWAP4 SWAP3 POP POP POP JUMP JUMPDEST PUSH1 0x0 DUP2 SWAP1 POP SWAP2 SWAP1 POP JUMP JUMPDEST PUSH1 0x0 DUP1 REVERT JUMPDEST PUSH2 0x204 DUP2 PUSH2 0x1EC JUMP JUMPDEST DUP2 EQ PUSH2 0x20F JUMPI PUSH1 0x0 DUP1 REVERT JUMPDEST POP JUMP INVALID LOG2 PUSH5 0x6970667358 0x22 SLT KECCAK256 0xC4 KECCAK256 CALLVALUE DELEGATECALL MSTORE8 0xE1 PC JUMPDEST 0xD8 PUSH4 0x688319C6 SWAP1 0x29 PUSH16 0x81896976C02FD2ECED4673CBA7F18D64 PUSH20 0x6F6C634300080700330000000000000000000000 "
		},
		"gasEstimates": {
			"creation": {
				"codeDepositCost": "116800",
				"executionCost": "165",
				"totalCost": "116965"
			},
			"external": {
				"testMax(uint256,uint256)": "infinite"
			}
		},
		"methodIdentifiers": {
			"testMax(uint256,uint256)": "834db421"
		}
	},
	"abi": [
		{
			"inputs": [
				{
					"internalType": "uint256",
					"name": "x",
					"type": "uint256"
				},
				{
					"internalType": "uint256",
					"name": "y",
					"type": "uint256"
				}
			],
			"name": "testMax",
			"outputs": [
				{
					"internalType": "uint256",
					"name": "",
					"type": "uint256"
				}
			],
			"stateMutability": "pure",
			"type": "function"
		}
	]
}